{
  "contractName": "Market",
  "abi": [
    {
      "inputs": [
        {
          "internalType": "address",
          "name": "_realSkullsAddress",
          "type": "address"
        }
      ],
      "stateMutability": "nonpayable",
      "type": "constructor"
    },
    {
      "anonymous": false,
      "inputs": [
        {
          "indexed": true,
          "internalType": "address",
          "name": "previousOwner",
          "type": "address"
        },
        {
          "indexed": true,
          "internalType": "address",
          "name": "newOwner",
          "type": "address"
        }
      ],
      "name": "OwnershipTransferred",
      "type": "event"
    },
    {
      "inputs": [],
      "name": "owner",
      "outputs": [
        {
          "internalType": "address",
          "name": "",
          "type": "address"
        }
      ],
      "stateMutability": "view",
      "type": "function"
    },
    {
      "inputs": [],
      "name": "realSkullsAddress",
      "outputs": [
        {
          "internalType": "address",
          "name": "",
          "type": "address"
        }
      ],
      "stateMutability": "view",
      "type": "function"
    },
    {
      "inputs": [],
      "name": "renounceOwnership",
      "outputs": [],
      "stateMutability": "nonpayable",
      "type": "function"
    },
    {
      "inputs": [
        {
          "internalType": "uint256",
          "name": "",
          "type": "uint256"
        }
      ],
      "name": "soldSkulls",
      "outputs": [
        {
          "internalType": "address",
          "name": "",
          "type": "address"
        }
      ],
      "stateMutability": "view",
      "type": "function"
    },
    {
      "inputs": [
        {
          "internalType": "address",
          "name": "newOwner",
          "type": "address"
        }
      ],
      "name": "transferOwnership",
      "outputs": [],
      "stateMutability": "nonpayable",
      "type": "function"
    },
    {
      "inputs": [
        {
          "internalType": "uint256",
          "name": "tokenId",
          "type": "uint256"
        },
        {
          "internalType": "address",
          "name": "paymentToken",
          "type": "address"
        },
        {
          "internalType": "uint256",
          "name": "price",
          "type": "uint256"
        }
      ],
      "name": "setPrice",
      "outputs": [],
      "stateMutability": "nonpayable",
      "type": "function"
    },
    {
      "inputs": [
        {
          "internalType": "uint256",
          "name": "tokenId",
          "type": "uint256"
        },
        {
          "internalType": "address",
          "name": "paymentToken",
          "type": "address"
        }
      ],
      "name": "getPrice",
      "outputs": [
        {
          "internalType": "uint256",
          "name": "",
          "type": "uint256"
        }
      ],
      "stateMutability": "view",
      "type": "function"
    },
    {
      "inputs": [
        {
          "internalType": "uint256",
          "name": "tokenId",
          "type": "uint256"
        },
        {
          "internalType": "address",
          "name": "payTokenAddress",
          "type": "address"
        },
        {
          "internalType": "uint256",
          "name": "tokenAmount",
          "type": "uint256"
        }
      ],
      "name": "buyToken",
      "outputs": [],
      "stateMutability": "payable",
      "type": "function"
    },
    {
      "inputs": [
        {
          "internalType": "uint256",
          "name": "tokenId",
          "type": "uint256"
        }
      ],
      "name": "soldTo",
      "outputs": [
        {
          "internalType": "address",
          "name": "",
          "type": "address"
        }
      ],
      "stateMutability": "view",
      "type": "function"
    }
  ],
  "bytecode": "0x60806040523480156200001157600080fd5b506040516200102c3803806200102c8339818101604052810190620000379190620001d5565b620000576200004b6200009f60201b60201c565b620000a760201b60201c565b80600160006101000a81548173ffffffffffffffffffffffffffffffffffffffff021916908373ffffffffffffffffffffffffffffffffffffffff1602179055505062000207565b600033905090565b60008060009054906101000a900473ffffffffffffffffffffffffffffffffffffffff169050816000806101000a81548173ffffffffffffffffffffffffffffffffffffffff021916908373ffffffffffffffffffffffffffffffffffffffff1602179055508173ffffffffffffffffffffffffffffffffffffffff168173ffffffffffffffffffffffffffffffffffffffff167f8be0079c531659141344cd1fd0a4f28419497f9722a3daafe3b4186f6b6457e060405160405180910390a35050565b600080fd5b600073ffffffffffffffffffffffffffffffffffffffff82169050919050565b60006200019d8262000170565b9050919050565b620001af8162000190565b8114620001bb57600080fd5b50565b600081519050620001cf81620001a4565b92915050565b600060208284031215620001ee57620001ed6200016b565b5b6000620001fe84828501620001be565b91505092915050565b610e1580620002176000396000f3fe6080604052600436106100865760003560e01c80638da5cb5b116100595780638da5cb5b14610147578063ed6cc2d114610172578063f2b8f4241461019b578063f2fde38b146101d8578063f3e626401461020157610086565b8063156184f81461008b5780632b57cfbb146100c85780635ec2e22e14610105578063715018a614610130575b600080fd5b34801561009757600080fd5b506100b260048036038101906100ad919061099a565b61021d565b6040516100bf9190610a08565b60405180910390f35b3480156100d457600080fd5b506100ef60048036038101906100ea9190610a4f565b610250565b6040516100fc9190610a9e565b60405180910390f35b34801561011157600080fd5b5061011a6102ab565b6040516101279190610a08565b60405180910390f35b34801561013c57600080fd5b506101456102d1565b005b34801561015357600080fd5b5061015c610359565b6040516101699190610a08565b60405180910390f35b34801561017e57600080fd5b5061019960048036038101906101949190610ab9565b610382565b005b3480156101a757600080fd5b506101c260048036038101906101bd919061099a565b610458565b6040516101cf9190610a08565b60405180910390f35b3480156101e457600080fd5b506101ff60048036038101906101fa9190610b0c565b610495565b005b61021b60048036038101906102169190610ab9565b61058d565b005b60026020528060005260406000206000915054906101000a900473ffffffffffffffffffffffffffffffffffffffff1681565b60006003600084815260200190815260200160002060008373ffffffffffffffffffffffffffffffffffffffff1673ffffffffffffffffffffffffffffffffffffffff16815260200190815260200160002054905092915050565b600160009054906101000a900473ffffffffffffffffffffffffffffffffffffffff1681565b6102d9610744565b73ffffffffffffffffffffffffffffffffffffffff166102f7610359565b73ffffffffffffffffffffffffffffffffffffffff161461034d576040517f08c379a000000000000000000000000000000000000000000000000000000000815260040161034490610b96565b60405180910390fd5b610357600061074c565b565b60008060009054906101000a900473ffffffffffffffffffffffffffffffffffffffff16905090565b61038a610744565b73ffffffffffffffffffffffffffffffffffffffff166103a8610359565b73ffffffffffffffffffffffffffffffffffffffff16146103fe576040517f08c379a00000000000000000000000000000000000000000000000000000000081526004016103f590610b96565b60405180910390fd5b806003600085815260200190815260200160002060008473ffffffffffffffffffffffffffffffffffffffff1673ffffffffffffffffffffffffffffffffffffffff16815260200190815260200160002081905550505050565b60006002600083815260200190815260200160002060009054906101000a900473ffffffffffffffffffffffffffffffffffffffff169050919050565b61049d610744565b73ffffffffffffffffffffffffffffffffffffffff166104bb610359565b73ffffffffffffffffffffffffffffffffffffffff1614610511576040517f08c379a000000000000000000000000000000000000000000000000000000000815260040161050890610b96565b60405180910390fd5b600073ffffffffffffffffffffffffffffffffffffffff168173ffffffffffffffffffffffffffffffffffffffff161415610581576040517f08c379a000000000000000000000000000000000000000000000000000000000815260040161057890610c28565b60405180910390fd5b61058a8161074c565b50565b60006105998484610250565b90508273ffffffffffffffffffffffffffffffffffffffff16600073ffffffffffffffffffffffffffffffffffffffff16146106785760008390508073ffffffffffffffffffffffffffffffffffffffff166323b872dd6105f8610744565b610600610359565b856040518463ffffffff1660e01b815260040161061f93929190610c48565b602060405180830381600087803b15801561063957600080fd5b505af115801561064d573d6000803e3d6000fd5b505050506040513d601f19601f820116820180604052508101906106719190610cb7565b50506106d3565b34811461068457600080fd5b61068c610359565b73ffffffffffffffffffffffffffffffffffffffff166108fc349081150290604051600060405180830381858888f193505050501580156106d1573d6000803e3d6000fd5b505b6106e56106de610744565b8584610810565b6106ed610744565b6002600086815260200190815260200160002060006101000a81548173ffffffffffffffffffffffffffffffffffffffff021916908373ffffffffffffffffffffffffffffffffffffffff16021790555050505050565b600033905090565b60008060009054906101000a900473ffffffffffffffffffffffffffffffffffffffff169050816000806101000a81548173ffffffffffffffffffffffffffffffffffffffff021916908373ffffffffffffffffffffffffffffffffffffffff1602179055508173ffffffffffffffffffffffffffffffffffffffff168173ffffffffffffffffffffffffffffffffffffffff167f8be0079c531659141344cd1fd0a4f28419497f9722a3daafe3b4186f6b6457e060405160405180910390a35050565b600073ffffffffffffffffffffffffffffffffffffffff168373ffffffffffffffffffffffffffffffffffffffff161415610880576040517f08c379a000000000000000000000000000000000000000000000000000000000815260040161087790610d30565b60405180910390fd5b600073ffffffffffffffffffffffffffffffffffffffff166108a183610458565b73ffffffffffffffffffffffffffffffffffffffff16146108c157600080fd5b6000600160009054906101000a900473ffffffffffffffffffffffffffffffffffffffff1690508073ffffffffffffffffffffffffffffffffffffffff1663f242432a308686866040518563ffffffff1660e01b81526004016109279493929190610d87565b600060405180830381600087803b15801561094157600080fd5b505af1158015610955573d6000803e3d6000fd5b5050505050505050565b600080fd5b6000819050919050565b61097781610964565b811461098257600080fd5b50565b6000813590506109948161096e565b92915050565b6000602082840312156109b0576109af61095f565b5b60006109be84828501610985565b91505092915050565b600073ffffffffffffffffffffffffffffffffffffffff82169050919050565b60006109f2826109c7565b9050919050565b610a02816109e7565b82525050565b6000602082019050610a1d60008301846109f9565b92915050565b610a2c816109e7565b8114610a3757600080fd5b50565b600081359050610a4981610a23565b92915050565b60008060408385031215610a6657610a6561095f565b5b6000610a7485828601610985565b9250506020610a8585828601610a3a565b9150509250929050565b610a9881610964565b82525050565b6000602082019050610ab36000830184610a8f565b92915050565b600080600060608486031215610ad257610ad161095f565b5b6000610ae086828701610985565b9350506020610af186828701610a3a565b9250506040610b0286828701610985565b9150509250925092565b600060208284031215610b2257610b2161095f565b5b6000610b3084828501610a3a565b91505092915050565b600082825260208201905092915050565b7f4f776e61626c653a2063616c6c6572206973206e6f7420746865206f776e6572600082015250565b6000610b80602083610b39565b9150610b8b82610b4a565b602082019050919050565b60006020820190508181036000830152610baf81610b73565b9050919050565b7f4f776e61626c653a206e6577206f776e657220697320746865207a65726f206160008201527f6464726573730000000000000000000000000000000000000000000000000000602082015250565b6000610c12602683610b39565b9150610c1d82610bb6565b604082019050919050565b60006020820190508181036000830152610c4181610c05565b9050919050565b6000606082019050610c5d60008301866109f9565b610c6a60208301856109f9565b610c776040830184610a8f565b949350505050565b60008115159050919050565b610c9481610c7f565b8114610c9f57600080fd5b50565b600081519050610cb181610c8b565b92915050565b600060208284031215610ccd57610ccc61095f565b5b6000610cdb84828501610ca2565b91505092915050565b7f43616e6e6f742073656e6420746f207468697320616464726573730000000000600082015250565b6000610d1a601b83610b39565b9150610d2582610ce4565b602082019050919050565b60006020820190508181036000830152610d4981610d0d565b9050919050565b600082825260208201905092915050565b50565b6000610d71600083610d50565b9150610d7c82610d61565b600082019050919050565b600060a082019050610d9c60008301876109f9565b610da960208301866109f9565b610db66040830185610a8f565b610dc36060830184610a8f565b8181036080830152610dd481610d64565b90509594505050505056fea2646970667358221220cbc1a8a61ee293c8d2134d4b41c9a199f48b231cd51f481461d38f42b0d7124d64736f6c63430008090033",
  "immutableReferences": {},
  "source": "// SPDX-License-Identifier: MIT\npragma solidity ^0.8.9;\n\nimport \"@openzeppelin/contracts/token/ERC1155/IERC1155.sol\";\nimport \"@openzeppelin/contracts/token/ERC20/IERC20.sol\";\nimport \"@openzeppelin/contracts/access/Ownable.sol\";\n\ncontract Market is Ownable {\n  address public realSkullsAddress;\n  mapping(uint256 => address) public soldSkulls;\n  mapping(uint256 => mapping(address => uint256)) private _prices;\n\n  constructor(address _realSkullsAddress) {\n    realSkullsAddress = _realSkullsAddress;\n  }\n\n  function setPrice(\n    uint256 tokenId,\n    address paymentToken,\n    uint256 price\n  ) public onlyOwner {\n    _prices[tokenId][paymentToken] = price;\n  }\n\n  function getPrice(uint256 tokenId, address paymentToken)\n    public\n    view\n    returns (uint256)\n  {\n    return _prices[tokenId][paymentToken];\n  }\n\n  function buyToken(\n    uint256 tokenId,\n    address payTokenAddress,\n    uint256 tokenAmount\n  ) public payable {\n    uint256 amount = getPrice(tokenId, payTokenAddress);\n    if (address(0) != payTokenAddress) {\n      IERC20 tokenContract = IERC20(payTokenAddress);\n      tokenContract.transferFrom(_msgSender(), owner(), amount);\n    } else {\n      //use native token\n      require(amount == msg.value);\n      payable(owner()).transfer(msg.value);\n    }\n    _transfer(_msgSender(), tokenId, tokenAmount);\n    soldSkulls[tokenId] = _msgSender();\n  }\n\n  function _transfer(\n    address recipient,\n    uint256 tokenId,\n    uint256 tokenAmount\n  ) internal {\n    require(recipient != address(0), \"Cannot send to this address\");\n    require(soldTo(tokenId) == address(0));\n\n    IERC1155 realSkullContract = IERC1155(realSkullsAddress);\n\n    realSkullContract.safeTransferFrom(\n      address(this),\n      recipient,\n      tokenId,\n      tokenAmount,\n      \"\"\n    );\n  }\n\n  function soldTo(uint256 tokenId) public view returns (address) {\n    return soldSkulls[tokenId];\n  }\n}\n",
  "sourcePath": "/home/rafael/Desktop/repos/NFT/RealSkulls/contracts/Market.sol",
  "compiler": {
    "name": "solc",
    "version": "0.8.9+commit.e5eed63a.Emscripten.clang"
  },
  "schemaVersion": "3.4.3",
  "updatedAt": "2021-10-10T18:51:25.782Z",
  "devdoc": {
    "kind": "dev",
    "methods": {
      "owner()": {
        "details": "Returns the address of the current owner."
      },
      "renounceOwnership()": {
        "details": "Leaves the contract without owner. It will not be possible to call `onlyOwner` functions anymore. Can only be called by the current owner. NOTE: Renouncing ownership will leave the contract without an owner, thereby removing any functionality that is only available to the owner."
      },
      "transferOwnership(address)": {
        "details": "Transfers ownership of the contract to a new account (`newOwner`). Can only be called by the current owner."
      }
    },
    "version": 1
  },
  "userdoc": {
    "kind": "user",
    "methods": {},
    "version": 1
  }
}