{
  "contractName": "Market",
  "abi": [
    {
      "inputs": [
        {
          "internalType": "address",
          "name": "_realSkullsAddress",
          "type": "address"
        },
        {
          "internalType": "address",
          "name": "_skullTokenAddress",
          "type": "address"
        },
        {
          "internalType": "uint256",
          "name": "_tokenForRealSkulls",
          "type": "uint256"
        }
      ],
      "stateMutability": "nonpayable",
      "type": "constructor"
    },
    {
      "anonymous": false,
      "inputs": [
        {
          "indexed": true,
          "internalType": "address",
          "name": "previousOwner",
          "type": "address"
        },
        {
          "indexed": true,
          "internalType": "address",
          "name": "newOwner",
          "type": "address"
        }
      ],
      "name": "OwnershipTransferred",
      "type": "event"
    },
    {
      "inputs": [],
      "name": "owner",
      "outputs": [
        {
          "internalType": "address",
          "name": "",
          "type": "address"
        }
      ],
      "stateMutability": "view",
      "type": "function"
    },
    {
      "inputs": [],
      "name": "realSkullsAddress",
      "outputs": [
        {
          "internalType": "address",
          "name": "",
          "type": "address"
        }
      ],
      "stateMutability": "view",
      "type": "function"
    },
    {
      "inputs": [],
      "name": "renounceOwnership",
      "outputs": [],
      "stateMutability": "nonpayable",
      "type": "function"
    },
    {
      "inputs": [],
      "name": "skullTokenAddress",
      "outputs": [
        {
          "internalType": "address",
          "name": "",
          "type": "address"
        }
      ],
      "stateMutability": "view",
      "type": "function"
    },
    {
      "inputs": [
        {
          "internalType": "uint256",
          "name": "",
          "type": "uint256"
        }
      ],
      "name": "soldSkulls",
      "outputs": [
        {
          "internalType": "address",
          "name": "",
          "type": "address"
        }
      ],
      "stateMutability": "view",
      "type": "function"
    },
    {
      "inputs": [],
      "name": "tokenForRealSkulls",
      "outputs": [
        {
          "internalType": "uint256",
          "name": "",
          "type": "uint256"
        }
      ],
      "stateMutability": "view",
      "type": "function"
    },
    {
      "inputs": [
        {
          "internalType": "address",
          "name": "newOwner",
          "type": "address"
        }
      ],
      "name": "transferOwnership",
      "outputs": [],
      "stateMutability": "nonpayable",
      "type": "function"
    },
    {
      "inputs": [
        {
          "internalType": "address",
          "name": "paymentToken",
          "type": "address"
        },
        {
          "internalType": "uint256",
          "name": "price",
          "type": "uint256"
        }
      ],
      "name": "setPrice",
      "outputs": [],
      "stateMutability": "nonpayable",
      "type": "function"
    },
    {
      "inputs": [
        {
          "internalType": "address",
          "name": "paymentToken",
          "type": "address"
        }
      ],
      "name": "getPrice",
      "outputs": [
        {
          "internalType": "uint256",
          "name": "",
          "type": "uint256"
        }
      ],
      "stateMutability": "view",
      "type": "function"
    },
    {
      "inputs": [
        {
          "internalType": "address",
          "name": "payTokenAddress",
          "type": "address"
        },
        {
          "internalType": "uint256",
          "name": "amount",
          "type": "uint256"
        }
      ],
      "name": "mint",
      "outputs": [],
      "stateMutability": "payable",
      "type": "function"
    },
    {
      "inputs": [
        {
          "internalType": "address",
          "name": "payTokenAddress",
          "type": "address"
        },
        {
          "internalType": "uint256",
          "name": "amount",
          "type": "uint256"
        }
      ],
      "name": "_payTokens",
      "outputs": [],
      "stateMutability": "payable",
      "type": "function"
    },
    {
      "inputs": [
        {
          "internalType": "uint256",
          "name": "tokenId",
          "type": "uint256"
        }
      ],
      "name": "soldTo",
      "outputs": [
        {
          "internalType": "address",
          "name": "",
          "type": "address"
        }
      ],
      "stateMutability": "view",
      "type": "function"
    }
  ],
  "bytecode": "0x60806040523480156200001157600080fd5b50604051620012ed380380620012ed83398181016040528101906200003791906200025a565b620000576200004b620000e960201b60201c565b620000f160201b60201c565b82600160006101000a81548173ffffffffffffffffffffffffffffffffffffffff021916908373ffffffffffffffffffffffffffffffffffffffff16021790555081600260006101000a81548173ffffffffffffffffffffffffffffffffffffffff021916908373ffffffffffffffffffffffffffffffffffffffff16021790555080600381905550505050620002b6565b600033905090565b60008060009054906101000a900473ffffffffffffffffffffffffffffffffffffffff169050816000806101000a81548173ffffffffffffffffffffffffffffffffffffffff021916908373ffffffffffffffffffffffffffffffffffffffff1602179055508173ffffffffffffffffffffffffffffffffffffffff168173ffffffffffffffffffffffffffffffffffffffff167f8be0079c531659141344cd1fd0a4f28419497f9722a3daafe3b4186f6b6457e060405160405180910390a35050565b600080fd5b600073ffffffffffffffffffffffffffffffffffffffff82169050919050565b6000620001e782620001ba565b9050919050565b620001f981620001da565b81146200020557600080fd5b50565b6000815190506200021981620001ee565b92915050565b6000819050919050565b62000234816200021f565b81146200024057600080fd5b50565b600081519050620002548162000229565b92915050565b600080600060608486031215620002765762000275620001b5565b5b6000620002868682870162000208565b9350506020620002998682870162000208565b9250506040620002ac8682870162000243565b9150509250925092565b61102780620002c66000396000f3fe6080604052600436106100a65760003560e01c8063715018a611610064578063715018a6146101c057806389916c50146101d75780638da5cb5b14610202578063b04636101461022d578063f2b8f42414610249578063f2fde38b14610286576100a6565b8062e4768b146100ab578063156184f8146100d457806340c10f191461011157806341976e091461012d5780635ec2e22e1461016a57806360bc5c3014610195575b600080fd5b3480156100b757600080fd5b506100d260048036038101906100cd9190610b8c565b6102af565b005b3480156100e057600080fd5b506100fb60048036038101906100f69190610bcc565b610373565b6040516101089190610c08565b60405180910390f35b61012b60048036038101906101269190610b8c565b6103a6565b005b34801561013957600080fd5b50610154600480360381019061014f9190610c23565b61050f565b6040516101619190610c5f565b60405180910390f35b34801561017657600080fd5b5061017f610558565b60405161018c9190610c08565b60405180910390f35b3480156101a157600080fd5b506101aa61057e565b6040516101b79190610c08565b60405180910390f35b3480156101cc57600080fd5b506101d56105a4565b005b3480156101e357600080fd5b506101ec61062c565b6040516101f99190610c5f565b60405180910390f35b34801561020e57600080fd5b50610217610632565b6040516102249190610c08565b60405180910390f35b61024760048036038101906102429190610b8c565b61065b565b005b34801561025557600080fd5b50610270600480360381019061026b9190610bcc565b6108f2565b60405161027d9190610c08565b60405180910390f35b34801561029257600080fd5b506102ad60048036038101906102a89190610c23565b61092f565b005b6102b7610a27565b73ffffffffffffffffffffffffffffffffffffffff166102d5610632565b73ffffffffffffffffffffffffffffffffffffffff161461032b576040517f08c379a000000000000000000000000000000000000000000000000000000000815260040161032290610cd7565b60405180910390fd5b80600560008473ffffffffffffffffffffffffffffffffffffffff1673ffffffffffffffffffffffffffffffffffffffff168152602001908152602001600020819055505050565b60046020528060005260406000206000915054906101000a900473ffffffffffffffffffffffffffffffffffffffff1681565b6000600160009054906101000a900473ffffffffffffffffffffffffffffffffffffffff1690506000600260009054906101000a900473ffffffffffffffffffffffffffffffffffffffff1690506103fe848461065b565b8173ffffffffffffffffffffffffffffffffffffffff166340c10f19610422610a27565b856040518363ffffffff1660e01b8152600401610440929190610cf7565b600060405180830381600087803b15801561045a57600080fd5b505af115801561046e573d6000803e3d6000fd5b505050508073ffffffffffffffffffffffffffffffffffffffff1663a9059cbb610496610a27565b6003546040518363ffffffff1660e01b81526004016104b6929190610cf7565b602060405180830381600087803b1580156104d057600080fd5b505af11580156104e4573d6000803e3d6000fd5b505050506040513d601f19601f820116820180604052508101906105089190610d58565b5050505050565b6000600560008373ffffffffffffffffffffffffffffffffffffffff1673ffffffffffffffffffffffffffffffffffffffff168152602001908152602001600020549050919050565b600160009054906101000a900473ffffffffffffffffffffffffffffffffffffffff1681565b600260009054906101000a900473ffffffffffffffffffffffffffffffffffffffff1681565b6105ac610a27565b73ffffffffffffffffffffffffffffffffffffffff166105ca610632565b73ffffffffffffffffffffffffffffffffffffffff1614610620576040517f08c379a000000000000000000000000000000000000000000000000000000000815260040161061790610cd7565b60405180910390fd5b61062a6000610a2f565b565b60035481565b60008060009054906101000a900473ffffffffffffffffffffffffffffffffffffffff16905090565b6000811161069e576040517f08c379a000000000000000000000000000000000000000000000000000000000815260040161069590610dd1565b60405180910390fd5b60006106a98361050f565b116106e9576040517f08c379a00000000000000000000000000000000000000000000000000000000081526004016106e090610dd1565b60405180910390fd5b60008290506000826106fa8561050f565b6107049190610e20565b90508373ffffffffffffffffffffffffffffffffffffffff16600073ffffffffffffffffffffffffffffffffffffffff16146108a857808273ffffffffffffffffffffffffffffffffffffffff166370a0823161075f610a27565b6040518263ffffffff1660e01b815260040161077b9190610c08565b60206040518083038186803b15801561079357600080fd5b505afa1580156107a7573d6000803e3d6000fd5b505050506040513d601f19601f820116820180604052508101906107cb9190610e8f565b101561080c576040517f08c379a000000000000000000000000000000000000000000000000000000000815260040161080390610f08565b60405180910390fd5b8173ffffffffffffffffffffffffffffffffffffffff166323b872dd610830610a27565b30846040518463ffffffff1660e01b815260040161085093929190610f28565b602060405180830381600087803b15801561086a57600080fd5b505af115801561087e573d6000803e3d6000fd5b505050506040513d601f19601f820116820180604052508101906108a29190610d58565b506108ec565b348110156108eb576040517f08c379a00000000000000000000000000000000000000000000000000000000081526004016108e290610f08565b60405180910390fd5b5b50505050565b60006004600083815260200190815260200160002060009054906101000a900473ffffffffffffffffffffffffffffffffffffffff169050919050565b610937610a27565b73ffffffffffffffffffffffffffffffffffffffff16610955610632565b73ffffffffffffffffffffffffffffffffffffffff16146109ab576040517f08c379a00000000000000000000000000000000000000000000000000000000081526004016109a290610cd7565b60405180910390fd5b600073ffffffffffffffffffffffffffffffffffffffff168173ffffffffffffffffffffffffffffffffffffffff161415610a1b576040517f08c379a0000000000000000000000000000000000000000000000000000000008152600401610a1290610fd1565b60405180910390fd5b610a2481610a2f565b50565b600033905090565b60008060009054906101000a900473ffffffffffffffffffffffffffffffffffffffff169050816000806101000a81548173ffffffffffffffffffffffffffffffffffffffff021916908373ffffffffffffffffffffffffffffffffffffffff1602179055508173ffffffffffffffffffffffffffffffffffffffff168173ffffffffffffffffffffffffffffffffffffffff167f8be0079c531659141344cd1fd0a4f28419497f9722a3daafe3b4186f6b6457e060405160405180910390a35050565b600080fd5b600073ffffffffffffffffffffffffffffffffffffffff82169050919050565b6000610b2382610af8565b9050919050565b610b3381610b18565b8114610b3e57600080fd5b50565b600081359050610b5081610b2a565b92915050565b6000819050919050565b610b6981610b56565b8114610b7457600080fd5b50565b600081359050610b8681610b60565b92915050565b60008060408385031215610ba357610ba2610af3565b5b6000610bb185828601610b41565b9250506020610bc285828601610b77565b9150509250929050565b600060208284031215610be257610be1610af3565b5b6000610bf084828501610b77565b91505092915050565b610c0281610b18565b82525050565b6000602082019050610c1d6000830184610bf9565b92915050565b600060208284031215610c3957610c38610af3565b5b6000610c4784828501610b41565b91505092915050565b610c5981610b56565b82525050565b6000602082019050610c746000830184610c50565b92915050565b600082825260208201905092915050565b7f4f776e61626c653a2063616c6c6572206973206e6f7420746865206f776e6572600082015250565b6000610cc1602083610c7a565b9150610ccc82610c8b565b602082019050919050565b60006020820190508181036000830152610cf081610cb4565b9050919050565b6000604082019050610d0c6000830185610bf9565b610d196020830184610c50565b9392505050565b60008115159050919050565b610d3581610d20565b8114610d4057600080fd5b50565b600081519050610d5281610d2c565b92915050565b600060208284031215610d6e57610d6d610af3565b5b6000610d7c84828501610d43565b91505092915050565b7f494e56414c49445f494e50555400000000000000000000000000000000000000600082015250565b6000610dbb600d83610c7a565b9150610dc682610d85565b602082019050919050565b60006020820190508181036000830152610dea81610dae565b9050919050565b7f4e487b7100000000000000000000000000000000000000000000000000000000600052601160045260246000fd5b6000610e2b82610b56565b9150610e3683610b56565b9250817fffffffffffffffffffffffffffffffffffffffffffffffffffffffffffffffff0483118215151615610e6f57610e6e610df1565b5b828202905092915050565b600081519050610e8981610b60565b92915050565b600060208284031215610ea557610ea4610af3565b5b6000610eb384828501610e7a565b91505092915050565b7f4e4f5f4d4f4e4559000000000000000000000000000000000000000000000000600082015250565b6000610ef2600883610c7a565b9150610efd82610ebc565b602082019050919050565b60006020820190508181036000830152610f2181610ee5565b9050919050565b6000606082019050610f3d6000830186610bf9565b610f4a6020830185610bf9565b610f576040830184610c50565b949350505050565b7f4f776e61626c653a206e6577206f776e657220697320746865207a65726f206160008201527f6464726573730000000000000000000000000000000000000000000000000000602082015250565b6000610fbb602683610c7a565b9150610fc682610f5f565b604082019050919050565b60006020820190508181036000830152610fea81610fae565b905091905056fea26469706673582212203e184d30a1aa353ca164460cedc928a56051117561a7280245fdf614bd15d31c64736f6c63430008090033",
  "immutableReferences": {},
  "source": "// SPDX-License-Identifier: MIT\npragma solidity ^0.8.9;\n\nimport \"@openzeppelin/contracts/token/ERC20/IERC20.sol\";\nimport \"@openzeppelin/contracts/access/Ownable.sol\";\n\nimport \"./lib/IRealSkulls.sol\";\n\ncontract Market is Ownable {\n  address public realSkullsAddress;\n  address public skullTokenAddress;\n  uint256 public tokenForRealSkulls;\n  mapping(uint256 => address) public soldSkulls;\n  mapping(address => uint256) private _prices;\n\n  constructor(\n    address _realSkullsAddress,\n    address _skullTokenAddress,\n    uint256 _tokenForRealSkulls\n  ) {\n    realSkullsAddress = _realSkullsAddress;\n    skullTokenAddress = _skullTokenAddress;\n    tokenForRealSkulls = _tokenForRealSkulls;\n  }\n\n  function setPrice(address paymentToken, uint256 price) public onlyOwner {\n    _prices[paymentToken] = price;\n  }\n\n  function getPrice(address paymentToken) public view returns (uint256) {\n    return _prices[paymentToken];\n  }\n\n  function mint(address payTokenAddress, uint256 amount) public payable {\n    IRealSkulls realSkullContract = IRealSkulls(realSkullsAddress);\n    IERC20 skullTokenContract = IERC20(skullTokenAddress);\n\n    _payTokens(payTokenAddress, amount);\n    realSkullContract.mint(_msgSender(), amount);\n    skullTokenContract.transfer(_msgSender(), tokenForRealSkulls);\n  }\n\n  function _payTokens(address payTokenAddress, uint256 amount) public payable {\n    require(amount > 0, \"INVALID_INPUT\");\n    require(getPrice(payTokenAddress) > 0, \"INVALID_INPUT\");\n\n    IERC20 tokenContract = IERC20(payTokenAddress);\n    uint256 payAmount = getPrice(payTokenAddress) * amount;\n\n    if (address(0) != payTokenAddress) {\n      require(tokenContract.balanceOf(_msgSender()) >= payAmount, \"NO_MONEY\");\n      tokenContract.transferFrom(_msgSender(), address(this), payAmount);\n    } else {\n      //use native token\n      require(payAmount >= msg.value, \"NO_MONEY\");\n    }\n  }\n\n  function soldTo(uint256 tokenId) public view returns (address) {\n    return soldSkulls[tokenId];\n  }\n}\n",
  "sourcePath": "/home/rafael/Desktop/repos/NFT/RealSkulls/contracts/Market.sol",
  "compiler": {
    "name": "solc",
    "version": "0.8.9+commit.e5eed63a.Emscripten.clang"
  },
  "schemaVersion": "3.4.3",
  "updatedAt": "2021-10-14T02:56:11.916Z",
  "devdoc": {
    "kind": "dev",
    "methods": {
      "owner()": {
        "details": "Returns the address of the current owner."
      },
      "renounceOwnership()": {
        "details": "Leaves the contract without owner. It will not be possible to call `onlyOwner` functions anymore. Can only be called by the current owner. NOTE: Renouncing ownership will leave the contract without an owner, thereby removing any functionality that is only available to the owner."
      },
      "transferOwnership(address)": {
        "details": "Transfers ownership of the contract to a new account (`newOwner`). Can only be called by the current owner."
      }
    },
    "version": 1
  },
  "userdoc": {
    "kind": "user",
    "methods": {},
    "version": 1
  }
}