{
  "contractName": "Market",
  "abi": [
    {
      "inputs": [
        {
          "internalType": "address",
          "name": "_realSkullsAddress",
          "type": "address"
        }
      ],
      "stateMutability": "nonpayable",
      "type": "constructor"
    },
    {
      "anonymous": false,
      "inputs": [
        {
          "indexed": true,
          "internalType": "address",
          "name": "previousOwner",
          "type": "address"
        },
        {
          "indexed": true,
          "internalType": "address",
          "name": "newOwner",
          "type": "address"
        }
      ],
      "name": "OwnershipTransferred",
      "type": "event"
    },
    {
      "inputs": [],
      "name": "owner",
      "outputs": [
        {
          "internalType": "address",
          "name": "",
          "type": "address"
        }
      ],
      "stateMutability": "view",
      "type": "function"
    },
    {
      "inputs": [],
      "name": "realSkullsAddress",
      "outputs": [
        {
          "internalType": "address",
          "name": "",
          "type": "address"
        }
      ],
      "stateMutability": "view",
      "type": "function"
    },
    {
      "inputs": [],
      "name": "renounceOwnership",
      "outputs": [],
      "stateMutability": "nonpayable",
      "type": "function"
    },
    {
      "inputs": [
        {
          "internalType": "uint256",
          "name": "",
          "type": "uint256"
        }
      ],
      "name": "soldSkulls",
      "outputs": [
        {
          "internalType": "address",
          "name": "",
          "type": "address"
        }
      ],
      "stateMutability": "view",
      "type": "function"
    },
    {
      "inputs": [
        {
          "internalType": "address",
          "name": "newOwner",
          "type": "address"
        }
      ],
      "name": "transferOwnership",
      "outputs": [],
      "stateMutability": "nonpayable",
      "type": "function"
    },
    {
      "inputs": [
        {
          "internalType": "uint256",
          "name": "tokenId",
          "type": "uint256"
        },
        {
          "internalType": "address",
          "name": "paymentToken",
          "type": "address"
        },
        {
          "internalType": "uint256",
          "name": "price",
          "type": "uint256"
        }
      ],
      "name": "setPrice",
      "outputs": [],
      "stateMutability": "nonpayable",
      "type": "function"
    },
    {
      "inputs": [
        {
          "internalType": "uint256",
          "name": "tokenId",
          "type": "uint256"
        },
        {
          "internalType": "address",
          "name": "paymentToken",
          "type": "address"
        }
      ],
      "name": "getPrice",
      "outputs": [
        {
          "internalType": "uint256",
          "name": "",
          "type": "uint256"
        }
      ],
      "stateMutability": "view",
      "type": "function"
    },
    {
      "inputs": [
        {
          "internalType": "uint256[]",
          "name": "tokens",
          "type": "uint256[]"
        },
        {
          "internalType": "uint256[]",
          "name": "tokensAmount",
          "type": "uint256[]"
        },
        {
          "internalType": "address",
          "name": "payTokenAddress",
          "type": "address"
        }
      ],
      "name": "buyTokens",
      "outputs": [],
      "stateMutability": "payable",
      "type": "function"
    },
    {
      "inputs": [
        {
          "internalType": "uint256[]",
          "name": "tokens",
          "type": "uint256[]"
        },
        {
          "internalType": "uint256[]",
          "name": "tokensAmount",
          "type": "uint256[]"
        },
        {
          "internalType": "address",
          "name": "payTokenAddress",
          "type": "address"
        }
      ],
      "name": "mintAndBuyToken",
      "outputs": [],
      "stateMutability": "payable",
      "type": "function"
    },
    {
      "inputs": [
        {
          "internalType": "uint256[]",
          "name": "tokens",
          "type": "uint256[]"
        },
        {
          "internalType": "uint256[]",
          "name": "tokensAmount",
          "type": "uint256[]"
        },
        {
          "internalType": "address",
          "name": "payTokenAddress",
          "type": "address"
        }
      ],
      "name": "_payTokens",
      "outputs": [],
      "stateMutability": "payable",
      "type": "function"
    },
    {
      "inputs": [
        {
          "internalType": "uint256",
          "name": "tokenId",
          "type": "uint256"
        }
      ],
      "name": "soldTo",
      "outputs": [
        {
          "internalType": "address",
          "name": "",
          "type": "address"
        }
      ],
      "stateMutability": "view",
      "type": "function"
    }
  ],
  "bytecode": "0x60806040523480156200001157600080fd5b5060405162001934380380620019348339818101604052810190620000379190620001d5565b620000576200004b6200009f60201b60201c565b620000a760201b60201c565b80600160006101000a81548173ffffffffffffffffffffffffffffffffffffffff021916908373ffffffffffffffffffffffffffffffffffffffff1602179055505062000207565b600033905090565b60008060009054906101000a900473ffffffffffffffffffffffffffffffffffffffff169050816000806101000a81548173ffffffffffffffffffffffffffffffffffffffff021916908373ffffffffffffffffffffffffffffffffffffffff1602179055508173ffffffffffffffffffffffffffffffffffffffff168173ffffffffffffffffffffffffffffffffffffffff167f8be0079c531659141344cd1fd0a4f28419497f9722a3daafe3b4186f6b6457e060405160405180910390a35050565b600080fd5b600073ffffffffffffffffffffffffffffffffffffffff82169050919050565b60006200019d8262000170565b9050919050565b620001af8162000190565b8114620001bb57600080fd5b50565b600081519050620001cf81620001a4565b92915050565b600060208284031215620001ee57620001ed6200016b565b5b6000620001fe84828501620001be565b91505092915050565b61171d80620002176000396000f3fe60806040526004361061009c5760003560e01c80638497a49f116100645780638497a49f146101795780638da5cb5b14610195578063b84bdc6f146101c0578063ed6cc2d1146101dc578063f2b8f42414610205578063f2fde38b146102425761009c565b8063156184f8146100a15780632b57cfbb146100de5780635c3908131461011b5780635ec2e22e14610137578063715018a614610162575b600080fd5b3480156100ad57600080fd5b506100c860048036038101906100c39190610d3c565b61026b565b6040516100d59190610daa565b60405180910390f35b3480156100ea57600080fd5b5061010560048036038101906101009190610df1565b61029e565b6040516101129190610e40565b60405180910390f35b61013560048036038101906101309190610fb4565b6102f9565b005b34801561014357600080fd5b5061014c610759565b6040516101599190610daa565b60405180910390f35b34801561016e57600080fd5b5061017761077f565b005b610193600480360381019061018e9190610fb4565b610807565b005b3480156101a157600080fd5b506101aa6108b5565b6040516101b79190610daa565b60405180910390f35b6101da60048036038101906101d59190610fb4565b6108de565b005b3480156101e857600080fd5b5061020360048036038101906101fe919061103f565b610900565b005b34801561021157600080fd5b5061022c60048036038101906102279190610d3c565b6109d6565b6040516102399190610daa565b60405180910390f35b34801561024e57600080fd5b5061026960048036038101906102649190611092565b610a13565b005b60026020528060005260406000206000915054906101000a900473ffffffffffffffffffffffffffffffffffffffff1681565b60006003600084815260200190815260200160002060008373ffffffffffffffffffffffffffffffffffffffff1673ffffffffffffffffffffffffffffffffffffffff16815260200190815260200160002054905092915050565b815183511461033d576040517f08c379a00000000000000000000000000000000000000000000000000000000081526004016103349061111c565b60405180910390fd5b60008190506000805b85518110156105165760008582815181106103645761036361113c565b5b60200260200101516103908884815181106103825761038161113c565b5b60200260200101518761029e565b61039a919061119a565b9050600073ffffffffffffffffffffffffffffffffffffffff166103d78884815181106103ca576103c961113c565b5b60200260200101516109d6565b73ffffffffffffffffffffffffffffffffffffffff161480156103fa5750600081115b610439576040517f08c379a000000000000000000000000000000000000000000000000000000000815260040161043090611240565b60405180910390fd5b85828151811061044c5761044b61113c565b5b602002602001015161047888848151811061046a5761046961113c565b5b60200260200101518761029e565b610482919061119a565b8361048d9190611260565b9250610497610b0b565b600260008985815181106104ae576104ad61113c565b5b6020026020010151815260200190815260200160002060006101000a81548173ffffffffffffffffffffffffffffffffffffffff021916908373ffffffffffffffffffffffffffffffffffffffff16021790555050808061050e906112b6565b915050610346565b508273ffffffffffffffffffffffffffffffffffffffff16600073ffffffffffffffffffffffffffffffffffffffff16146106c057808273ffffffffffffffffffffffffffffffffffffffff166370a08231610570610b0b565b6040518263ffffffff1660e01b815260040161058c9190610daa565b60206040518083038186803b1580156105a457600080fd5b505afa1580156105b8573d6000803e3d6000fd5b505050506040513d601f19601f820116820180604052508101906105dc9190611314565b101561061d576040517f08c379a00000000000000000000000000000000000000000000000000000000081526004016106149061138d565b60405180910390fd5b8173ffffffffffffffffffffffffffffffffffffffff166323b872dd610641610b0b565b6106496108b5565b846040518463ffffffff1660e01b8152600401610668939291906113ad565b602060405180830381600087803b15801561068257600080fd5b505af1158015610696573d6000803e3d6000fd5b505050506040513d601f19601f820116820180604052508101906106ba919061141c565b50610752565b34811015610703576040517f08c379a00000000000000000000000000000000000000000000000000000000081526004016106fa9061138d565b60405180910390fd5b61070b6108b5565b73ffffffffffffffffffffffffffffffffffffffff166108fc349081150290604051600060405180830381858888f19350505050158015610750573d6000803e3d6000fd5b505b5050505050565b600160009054906101000a900473ffffffffffffffffffffffffffffffffffffffff1681565b610787610b0b565b73ffffffffffffffffffffffffffffffffffffffff166107a56108b5565b73ffffffffffffffffffffffffffffffffffffffff16146107fb576040517f08c379a00000000000000000000000000000000000000000000000000000000081526004016107f290611495565b60405180910390fd5b6108056000610b13565b565b6000600160009054906101000a900473ffffffffffffffffffffffffffffffffffffffff1690506108398484846102f9565b8073ffffffffffffffffffffffffffffffffffffffff16639727756a61085d610b0b565b86866040518463ffffffff1660e01b815260040161087d93929190611573565b600060405180830381600087803b15801561089757600080fd5b505af11580156108ab573d6000803e3d6000fd5b5050505050505050565b60008060009054906101000a900473ffffffffffffffffffffffffffffffffffffffff16905090565b6108e98383836102f9565b6108fb6108f4610b0b565b8484610bd7565b505050565b610908610b0b565b73ffffffffffffffffffffffffffffffffffffffff166109266108b5565b73ffffffffffffffffffffffffffffffffffffffff161461097c576040517f08c379a000000000000000000000000000000000000000000000000000000000815260040161097390611495565b60405180910390fd5b806003600085815260200190815260200160002060008473ffffffffffffffffffffffffffffffffffffffff1673ffffffffffffffffffffffffffffffffffffffff16815260200190815260200160002081905550505050565b60006002600083815260200190815260200160002060009054906101000a900473ffffffffffffffffffffffffffffffffffffffff169050919050565b610a1b610b0b565b73ffffffffffffffffffffffffffffffffffffffff16610a396108b5565b73ffffffffffffffffffffffffffffffffffffffff1614610a8f576040517f08c379a0000000000000000000000000000000000000000000000000000000008152600401610a8690611495565b60405180910390fd5b600073ffffffffffffffffffffffffffffffffffffffff168173ffffffffffffffffffffffffffffffffffffffff161415610aff576040517f08c379a0000000000000000000000000000000000000000000000000000000008152600401610af69061162a565b60405180910390fd5b610b0881610b13565b50565b600033905090565b60008060009054906101000a900473ffffffffffffffffffffffffffffffffffffffff169050816000806101000a81548173ffffffffffffffffffffffffffffffffffffffff021916908373ffffffffffffffffffffffffffffffffffffffff1602179055508173ffffffffffffffffffffffffffffffffffffffff168173ffffffffffffffffffffffffffffffffffffffff167f8be0079c531659141344cd1fd0a4f28419497f9722a3daafe3b4186f6b6457e060405160405180910390a35050565b600073ffffffffffffffffffffffffffffffffffffffff168373ffffffffffffffffffffffffffffffffffffffff1614158015610c15575080518251145b610c54576040517f08c379a0000000000000000000000000000000000000000000000000000000008152600401610c4b9061111c565b60405180910390fd5b6000600160009054906101000a900473ffffffffffffffffffffffffffffffffffffffff1690508073ffffffffffffffffffffffffffffffffffffffff16632eb2c2d6308686866040518563ffffffff1660e01b8152600401610cba9493929190611681565b600060405180830381600087803b158015610cd457600080fd5b505af1158015610ce8573d6000803e3d6000fd5b5050505050505050565b6000604051905090565b600080fd5b600080fd5b6000819050919050565b610d1981610d06565b8114610d2457600080fd5b50565b600081359050610d3681610d10565b92915050565b600060208284031215610d5257610d51610cfc565b5b6000610d6084828501610d27565b91505092915050565b600073ffffffffffffffffffffffffffffffffffffffff82169050919050565b6000610d9482610d69565b9050919050565b610da481610d89565b82525050565b6000602082019050610dbf6000830184610d9b565b92915050565b610dce81610d89565b8114610dd957600080fd5b50565b600081359050610deb81610dc5565b92915050565b60008060408385031215610e0857610e07610cfc565b5b6000610e1685828601610d27565b9250506020610e2785828601610ddc565b9150509250929050565b610e3a81610d06565b82525050565b6000602082019050610e556000830184610e31565b92915050565b600080fd5b6000601f19601f8301169050919050565b7f4e487b7100000000000000000000000000000000000000000000000000000000600052604160045260246000fd5b610ea982610e60565b810181811067ffffffffffffffff82111715610ec857610ec7610e71565b5b80604052505050565b6000610edb610cf2565b9050610ee78282610ea0565b919050565b600067ffffffffffffffff821115610f0757610f06610e71565b5b602082029050602081019050919050565b600080fd5b6000610f30610f2b84610eec565b610ed1565b90508083825260208201905060208402830185811115610f5357610f52610f18565b5b835b81811015610f7c5780610f688882610d27565b845260208401935050602081019050610f55565b5050509392505050565b600082601f830112610f9b57610f9a610e5b565b5b8135610fab848260208601610f1d565b91505092915050565b600080600060608486031215610fcd57610fcc610cfc565b5b600084013567ffffffffffffffff811115610feb57610fea610d01565b5b610ff786828701610f86565b935050602084013567ffffffffffffffff81111561101857611017610d01565b5b61102486828701610f86565b925050604061103586828701610ddc565b9150509250925092565b60008060006060848603121561105857611057610cfc565b5b600061106686828701610d27565b935050602061107786828701610ddc565b925050604061108886828701610d27565b9150509250925092565b6000602082840312156110a8576110a7610cfc565b5b60006110b684828501610ddc565b91505092915050565b600082825260208201905092915050565b7f494e56414c49445f494e50555400000000000000000000000000000000000000600082015250565b6000611106600d836110bf565b9150611111826110d0565b602082019050919050565b60006020820190508181036000830152611135816110f9565b9050919050565b7f4e487b7100000000000000000000000000000000000000000000000000000000600052603260045260246000fd5b7f4e487b7100000000000000000000000000000000000000000000000000000000600052601160045260246000fd5b60006111a582610d06565b91506111b083610d06565b9250817fffffffffffffffffffffffffffffffffffffffffffffffffffffffffffffffff04831182151516156111e9576111e861116b565b5b828202905092915050565b7f544f4b454e5f534f4c4400000000000000000000000000000000000000000000600082015250565b600061122a600a836110bf565b9150611235826111f4565b602082019050919050565b600060208201905081810360008301526112598161121d565b9050919050565b600061126b82610d06565b915061127683610d06565b9250827fffffffffffffffffffffffffffffffffffffffffffffffffffffffffffffffff038211156112ab576112aa61116b565b5b828201905092915050565b60006112c182610d06565b91507fffffffffffffffffffffffffffffffffffffffffffffffffffffffffffffffff8214156112f4576112f361116b565b5b600182019050919050565b60008151905061130e81610d10565b92915050565b60006020828403121561132a57611329610cfc565b5b6000611338848285016112ff565b91505092915050565b7f4e4f5f4d4f4e4559000000000000000000000000000000000000000000000000600082015250565b60006113776008836110bf565b915061138282611341565b602082019050919050565b600060208201905081810360008301526113a68161136a565b9050919050565b60006060820190506113c26000830186610d9b565b6113cf6020830185610d9b565b6113dc6040830184610e31565b949350505050565b60008115159050919050565b6113f9816113e4565b811461140457600080fd5b50565b600081519050611416816113f0565b92915050565b60006020828403121561143257611431610cfc565b5b600061144084828501611407565b91505092915050565b7f4f776e61626c653a2063616c6c6572206973206e6f7420746865206f776e6572600082015250565b600061147f6020836110bf565b915061148a82611449565b602082019050919050565b600060208201905081810360008301526114ae81611472565b9050919050565b600081519050919050565b600082825260208201905092915050565b6000819050602082019050919050565b6114ea81610d06565b82525050565b60006114fc83836114e1565b60208301905092915050565b6000602082019050919050565b6000611520826114b5565b61152a81856114c0565b9350611535836114d1565b8060005b8381101561156657815161154d88826114f0565b975061155883611508565b925050600181019050611539565b5085935050505092915050565b60006060820190506115886000830186610d9b565b818103602083015261159a8185611515565b905081810360408301526115ae8184611515565b9050949350505050565b7f4f776e61626c653a206e6577206f776e657220697320746865207a65726f206160008201527f6464726573730000000000000000000000000000000000000000000000000000602082015250565b60006116146026836110bf565b915061161f826115b8565b604082019050919050565b6000602082019050818103600083015261164381611607565b9050919050565b600082825260208201905092915050565b50565b600061166b60008361164a565b91506116768261165b565b600082019050919050565b600060a0820190506116966000830187610d9b565b6116a36020830186610d9b565b81810360408301526116b58185611515565b905081810360608301526116c98184611515565b905081810360808301526116dc8161165e565b90509594505050505056fea2646970667358221220885abe71f2c555e3a78dfe71ac43d8f2fdb68a596c5674f5cdb8ebda807b5fb764736f6c63430008090033",
  "immutableReferences": {},
  "source": "// SPDX-License-Identifier: MIT\npragma solidity ^0.8.9;\n\nimport \"@openzeppelin/contracts/token/ERC20/IERC20.sol\";\nimport \"@openzeppelin/contracts/access/Ownable.sol\";\n\nimport \"./lib/IRealSkulls.sol\";\n\ncontract Market is Ownable {\n  address public realSkullsAddress;\n  mapping(uint256 => address) public soldSkulls;\n  mapping(uint256 => mapping(address => uint256)) private _prices;\n\n  constructor(address _realSkullsAddress) {\n    realSkullsAddress = _realSkullsAddress;\n  }\n\n  function setPrice(\n    uint256 tokenId,\n    address paymentToken,\n    uint256 price\n  ) public onlyOwner {\n    _prices[tokenId][paymentToken] = price;\n  }\n\n  function getPrice(uint256 tokenId, address paymentToken)\n    public\n    view\n    returns (uint256)\n  {\n    return _prices[tokenId][paymentToken];\n  }\n\n  function buyTokens(\n    uint256[] memory tokens,\n    uint256[] memory tokensAmount,\n    address payTokenAddress\n  ) public payable {\n    _payTokens(tokens, tokensAmount, payTokenAddress);\n    _transfer(_msgSender(), tokens, tokensAmount);\n  }\n\n  function mintAndBuyToken(\n    uint256[] memory tokens,\n    uint256[] memory tokensAmount,\n    address payTokenAddress\n  ) public payable {\n    IRealSkulls realSkullContract = IRealSkulls(realSkullsAddress);\n    _payTokens(tokens, tokensAmount, payTokenAddress);\n    realSkullContract.mint(_msgSender(), tokens, tokensAmount);\n  }\n\n  function _payTokens(\n    uint256[] memory tokens,\n    uint256[] memory tokensAmount,\n    address payTokenAddress\n  ) public payable {\n    require(tokens.length == tokensAmount.length, \"INVALID_INPUT\");\n\n    IERC20 tokenContract = IERC20(payTokenAddress);\n    uint256 payAmount = 0;\n\n    for (uint256 i = 0; i < tokens.length; i++) {\n      uint256 price = getPrice(tokens[i], payTokenAddress) * tokensAmount[i];\n      require(soldTo(tokens[i]) == address(0) && price > 0, \"TOKEN_SOLD\");\n      payAmount += getPrice(tokens[i], payTokenAddress) * tokensAmount[i];\n      soldSkulls[tokens[i]] = _msgSender();\n    }\n\n    if (address(0) != payTokenAddress) {\n      require(tokenContract.balanceOf(_msgSender()) >= payAmount, \"NO_MONEY\");\n      tokenContract.transferFrom(_msgSender(), owner(), payAmount);\n    } else {\n      //use native token\n      require(payAmount >= msg.value, \"NO_MONEY\");\n      payable(owner()).transfer(msg.value);\n    }\n  }\n\n  function _transfer(\n    address recipient,\n    uint256[] memory tokens,\n    uint256[] memory tokensAmount\n  ) internal {\n    require(\n      recipient != address(0) && tokens.length == tokensAmount.length,\n      \"INVALID_INPUT\"\n    );\n    IRealSkulls realSkullContract = IRealSkulls(realSkullsAddress);\n\n    realSkullContract.safeBatchTransferFrom(\n      address(this),\n      recipient,\n      tokens,\n      tokensAmount,\n      \"\"\n    );\n  }\n\n  function soldTo(uint256 tokenId) public view returns (address) {\n    return soldSkulls[tokenId];\n  }\n}\n",
  "sourcePath": "/home/rafael/Desktop/repos/NFT/RealSkulls/contracts/Market.sol",
  "compiler": {
    "name": "solc",
    "version": "0.8.9+commit.e5eed63a.Emscripten.clang"
  },
  "schemaVersion": "3.4.3",
  "updatedAt": "2021-10-13T03:22:30.269Z",
  "devdoc": {
    "kind": "dev",
    "methods": {
      "owner()": {
        "details": "Returns the address of the current owner."
      },
      "renounceOwnership()": {
        "details": "Leaves the contract without owner. It will not be possible to call `onlyOwner` functions anymore. Can only be called by the current owner. NOTE: Renouncing ownership will leave the contract without an owner, thereby removing any functionality that is only available to the owner."
      },
      "transferOwnership(address)": {
        "details": "Transfers ownership of the contract to a new account (`newOwner`). Can only be called by the current owner."
      }
    },
    "version": 1
  },
  "userdoc": {
    "kind": "user",
    "methods": {},
    "version": 1
  }
}