{
  "contractName": "RealSkulls",
  "abi": [
    {
      "inputs": [],
      "stateMutability": "nonpayable",
      "type": "constructor"
    },
    {
      "anonymous": false,
      "inputs": [
        {
          "indexed": true,
          "internalType": "address",
          "name": "account",
          "type": "address"
        },
        {
          "indexed": true,
          "internalType": "address",
          "name": "operator",
          "type": "address"
        },
        {
          "indexed": false,
          "internalType": "bool",
          "name": "approved",
          "type": "bool"
        }
      ],
      "name": "ApprovalForAll",
      "type": "event"
    },
    {
      "anonymous": false,
      "inputs": [
        {
          "indexed": true,
          "internalType": "address",
          "name": "previousOwner",
          "type": "address"
        },
        {
          "indexed": true,
          "internalType": "address",
          "name": "newOwner",
          "type": "address"
        }
      ],
      "name": "OwnershipTransferred",
      "type": "event"
    },
    {
      "anonymous": false,
      "inputs": [
        {
          "indexed": true,
          "internalType": "address",
          "name": "operator",
          "type": "address"
        },
        {
          "indexed": true,
          "internalType": "address",
          "name": "from",
          "type": "address"
        },
        {
          "indexed": true,
          "internalType": "address",
          "name": "to",
          "type": "address"
        },
        {
          "indexed": false,
          "internalType": "uint256[]",
          "name": "ids",
          "type": "uint256[]"
        },
        {
          "indexed": false,
          "internalType": "uint256[]",
          "name": "values",
          "type": "uint256[]"
        }
      ],
      "name": "TransferBatch",
      "type": "event"
    },
    {
      "anonymous": false,
      "inputs": [
        {
          "indexed": true,
          "internalType": "address",
          "name": "operator",
          "type": "address"
        },
        {
          "indexed": true,
          "internalType": "address",
          "name": "from",
          "type": "address"
        },
        {
          "indexed": true,
          "internalType": "address",
          "name": "to",
          "type": "address"
        },
        {
          "indexed": false,
          "internalType": "uint256",
          "name": "id",
          "type": "uint256"
        },
        {
          "indexed": false,
          "internalType": "uint256",
          "name": "value",
          "type": "uint256"
        }
      ],
      "name": "TransferSingle",
      "type": "event"
    },
    {
      "anonymous": false,
      "inputs": [
        {
          "indexed": false,
          "internalType": "string",
          "name": "value",
          "type": "string"
        },
        {
          "indexed": true,
          "internalType": "uint256",
          "name": "id",
          "type": "uint256"
        }
      ],
      "name": "URI",
      "type": "event"
    },
    {
      "inputs": [
        {
          "internalType": "address",
          "name": "account",
          "type": "address"
        },
        {
          "internalType": "uint256",
          "name": "id",
          "type": "uint256"
        }
      ],
      "name": "balanceOf",
      "outputs": [
        {
          "internalType": "uint256",
          "name": "",
          "type": "uint256"
        }
      ],
      "stateMutability": "view",
      "type": "function"
    },
    {
      "inputs": [
        {
          "internalType": "address[]",
          "name": "accounts",
          "type": "address[]"
        },
        {
          "internalType": "uint256[]",
          "name": "ids",
          "type": "uint256[]"
        }
      ],
      "name": "balanceOfBatch",
      "outputs": [
        {
          "internalType": "uint256[]",
          "name": "",
          "type": "uint256[]"
        }
      ],
      "stateMutability": "view",
      "type": "function"
    },
    {
      "inputs": [
        {
          "internalType": "address",
          "name": "account",
          "type": "address"
        },
        {
          "internalType": "address",
          "name": "operator",
          "type": "address"
        }
      ],
      "name": "isApprovedForAll",
      "outputs": [
        {
          "internalType": "bool",
          "name": "",
          "type": "bool"
        }
      ],
      "stateMutability": "view",
      "type": "function"
    },
    {
      "inputs": [],
      "name": "owner",
      "outputs": [
        {
          "internalType": "address",
          "name": "",
          "type": "address"
        }
      ],
      "stateMutability": "view",
      "type": "function"
    },
    {
      "inputs": [],
      "name": "renounceOwnership",
      "outputs": [],
      "stateMutability": "nonpayable",
      "type": "function"
    },
    {
      "inputs": [
        {
          "internalType": "address",
          "name": "from",
          "type": "address"
        },
        {
          "internalType": "address",
          "name": "to",
          "type": "address"
        },
        {
          "internalType": "uint256[]",
          "name": "ids",
          "type": "uint256[]"
        },
        {
          "internalType": "uint256[]",
          "name": "amounts",
          "type": "uint256[]"
        },
        {
          "internalType": "bytes",
          "name": "data",
          "type": "bytes"
        }
      ],
      "name": "safeBatchTransferFrom",
      "outputs": [],
      "stateMutability": "nonpayable",
      "type": "function"
    },
    {
      "inputs": [
        {
          "internalType": "address",
          "name": "from",
          "type": "address"
        },
        {
          "internalType": "address",
          "name": "to",
          "type": "address"
        },
        {
          "internalType": "uint256",
          "name": "id",
          "type": "uint256"
        },
        {
          "internalType": "uint256",
          "name": "amount",
          "type": "uint256"
        },
        {
          "internalType": "bytes",
          "name": "data",
          "type": "bytes"
        }
      ],
      "name": "safeTransferFrom",
      "outputs": [],
      "stateMutability": "nonpayable",
      "type": "function"
    },
    {
      "inputs": [
        {
          "internalType": "address",
          "name": "operator",
          "type": "address"
        },
        {
          "internalType": "bool",
          "name": "approved",
          "type": "bool"
        }
      ],
      "name": "setApprovalForAll",
      "outputs": [],
      "stateMutability": "nonpayable",
      "type": "function"
    },
    {
      "inputs": [
        {
          "internalType": "bytes4",
          "name": "interfaceId",
          "type": "bytes4"
        }
      ],
      "name": "supportsInterface",
      "outputs": [
        {
          "internalType": "bool",
          "name": "",
          "type": "bool"
        }
      ],
      "stateMutability": "view",
      "type": "function"
    },
    {
      "inputs": [
        {
          "internalType": "address",
          "name": "newOwner",
          "type": "address"
        }
      ],
      "name": "transferOwnership",
      "outputs": [],
      "stateMutability": "nonpayable",
      "type": "function"
    },
    {
      "inputs": [
        {
          "internalType": "uint256",
          "name": "",
          "type": "uint256"
        }
      ],
      "name": "uri",
      "outputs": [
        {
          "internalType": "string",
          "name": "",
          "type": "string"
        }
      ],
      "stateMutability": "view",
      "type": "function"
    },
    {
      "inputs": [
        {
          "internalType": "address",
          "name": "to",
          "type": "address"
        },
        {
          "internalType": "uint256[]",
          "name": "ids",
          "type": "uint256[]"
        },
        {
          "internalType": "uint256[]",
          "name": "amounts",
          "type": "uint256[]"
        }
      ],
      "name": "mint",
      "outputs": [],
      "stateMutability": "nonpayable",
      "type": "function"
    }
  ],
  "bytecode": "0x60806040523480156200001157600080fd5b506040518060600160405280602781526020016200302a602791396200003d816200006460201b60201c565b506200005e620000526200008060201b60201c565b6200008860201b60201c565b62000263565b80600290805190602001906200007c9291906200014e565b5050565b600033905090565b6000600360009054906101000a900473ffffffffffffffffffffffffffffffffffffffff16905081600360006101000a81548173ffffffffffffffffffffffffffffffffffffffff021916908373ffffffffffffffffffffffffffffffffffffffff1602179055508173ffffffffffffffffffffffffffffffffffffffff168173ffffffffffffffffffffffffffffffffffffffff167f8be0079c531659141344cd1fd0a4f28419497f9722a3daafe3b4186f6b6457e060405160405180910390a35050565b8280546200015c906200022d565b90600052602060002090601f016020900481019282620001805760008555620001cc565b82601f106200019b57805160ff1916838001178555620001cc565b82800160010185558215620001cc579182015b82811115620001cb578251825591602001919060010190620001ae565b5b509050620001db9190620001df565b5090565b5b80821115620001fa576000816000905550600101620001e0565b5090565b7f4e487b7100000000000000000000000000000000000000000000000000000000600052602260045260246000fd5b600060028204905060018216806200024657607f821691505b602082108114156200025d576200025c620001fe565b5b50919050565b612db780620002736000396000f3fe608060405234801561001057600080fd5b50600436106100b35760003560e01c80638da5cb5b116100715780638da5cb5b1461019e5780639727756a146101bc578063a22cb465146101d8578063e985e9c5146101f4578063f242432a14610224578063f2fde38b14610240576100b3565b8062fdd58e146100b857806301ffc9a7146100e85780630e89341c146101185780632eb2c2d6146101485780634e1273f414610164578063715018a614610194575b600080fd5b6100d260048036038101906100cd9190611948565b61025c565b6040516100df9190611997565b60405180910390f35b61010260048036038101906100fd9190611a0a565b610325565b60405161010f9190611a52565b60405180910390f35b610132600480360381019061012d9190611a6d565b610407565b60405161013f9190611b33565b60405180910390f35b610162600480360381019061015d9190611d52565b61049b565b005b61017e60048036038101906101799190611ee4565b61053c565b60405161018b919061201a565b60405180910390f35b61019c610655565b005b6101a66106dd565b6040516101b3919061204b565b60405180910390f35b6101d660048036038101906101d19190612066565b610707565b005b6101f260048036038101906101ed919061211d565b6107a3565b005b61020e6004803603810190610209919061215d565b610924565b60405161021b9190611a52565b60405180910390f35b61023e6004803603810190610239919061219d565b6109b8565b005b61025a60048036038101906102559190612234565b610a59565b005b60008073ffffffffffffffffffffffffffffffffffffffff168373ffffffffffffffffffffffffffffffffffffffff1614156102cd576040517f08c379a00000000000000000000000000000000000000000000000000000000081526004016102c4906122d3565b60405180910390fd5b60008083815260200190815260200160002060008473ffffffffffffffffffffffffffffffffffffffff1673ffffffffffffffffffffffffffffffffffffffff16815260200190815260200160002054905092915050565b60007fd9b67a26000000000000000000000000000000000000000000000000000000007bffffffffffffffffffffffffffffffffffffffffffffffffffffffff1916827bffffffffffffffffffffffffffffffffffffffffffffffffffffffff191614806103f057507f0e89341c000000000000000000000000000000000000000000000000000000007bffffffffffffffffffffffffffffffffffffffffffffffffffffffff1916827bffffffffffffffffffffffffffffffffffffffffffffffffffffffff1916145b8061040057506103ff82610b51565b5b9050919050565b60606002805461041690612322565b80601f016020809104026020016040519081016040528092919081815260200182805461044290612322565b801561048f5780601f106104645761010080835404028352916020019161048f565b820191906000526020600020905b81548152906001019060200180831161047257829003601f168201915b50505050509050919050565b6104a3610bbb565b73ffffffffffffffffffffffffffffffffffffffff168573ffffffffffffffffffffffffffffffffffffffff1614806104e957506104e8856104e3610bbb565b610924565b5b610528576040517f08c379a000000000000000000000000000000000000000000000000000000000815260040161051f906123c6565b60405180910390fd5b6105358585858585610bc3565b5050505050565b60608151835114610582576040517f08c379a000000000000000000000000000000000000000000000000000000000815260040161057990612458565b60405180910390fd5b6000835167ffffffffffffffff81111561059f5761059e611b5a565b5b6040519080825280602002602001820160405280156105cd5781602001602082028036833780820191505090505b50905060005b845181101561064a5761061a8582815181106105f2576105f1612478565b5b602002602001015185838151811061060d5761060c612478565b5b602002602001015161025c565b82828151811061062d5761062c612478565b5b60200260200101818152505080610643906124d6565b90506105d3565b508091505092915050565b61065d610bbb565b73ffffffffffffffffffffffffffffffffffffffff1661067b6106dd565b73ffffffffffffffffffffffffffffffffffffffff16146106d1576040517f08c379a00000000000000000000000000000000000000000000000000000000081526004016106c89061256b565b60405180910390fd5b6106db6000610ed7565b565b6000600360009054906101000a900473ffffffffffffffffffffffffffffffffffffffff16905090565b61070f610bbb565b73ffffffffffffffffffffffffffffffffffffffff1661072d6106dd565b73ffffffffffffffffffffffffffffffffffffffff1614610783576040517f08c379a000000000000000000000000000000000000000000000000000000000815260040161077a9061256b565b60405180910390fd5b61079e83838360405180602001604052806000815250610f9d565b505050565b8173ffffffffffffffffffffffffffffffffffffffff166107c2610bbb565b73ffffffffffffffffffffffffffffffffffffffff161415610819576040517f08c379a0000000000000000000000000000000000000000000000000000000008152600401610810906125fd565b60405180910390fd5b8060016000610826610bbb565b73ffffffffffffffffffffffffffffffffffffffff1673ffffffffffffffffffffffffffffffffffffffff16815260200190815260200160002060008473ffffffffffffffffffffffffffffffffffffffff1673ffffffffffffffffffffffffffffffffffffffff16815260200190815260200160002060006101000a81548160ff0219169083151502179055508173ffffffffffffffffffffffffffffffffffffffff166108d3610bbb565b73ffffffffffffffffffffffffffffffffffffffff167f17307eab39ab6107e8899845ad3d59bd9653f200f220920489ca2b5937696c31836040516109189190611a52565b60405180910390a35050565b6000600160008473ffffffffffffffffffffffffffffffffffffffff1673ffffffffffffffffffffffffffffffffffffffff16815260200190815260200160002060008373ffffffffffffffffffffffffffffffffffffffff1673ffffffffffffffffffffffffffffffffffffffff16815260200190815260200160002060009054906101000a900460ff16905092915050565b6109c0610bbb565b73ffffffffffffffffffffffffffffffffffffffff168573ffffffffffffffffffffffffffffffffffffffff161480610a065750610a0585610a00610bbb565b610924565b5b610a45576040517f08c379a0000000000000000000000000000000000000000000000000000000008152600401610a3c9061268f565b60405180910390fd5b610a5285858585856111bb565b5050505050565b610a61610bbb565b73ffffffffffffffffffffffffffffffffffffffff16610a7f6106dd565b73ffffffffffffffffffffffffffffffffffffffff1614610ad5576040517f08c379a0000000000000000000000000000000000000000000000000000000008152600401610acc9061256b565b60405180910390fd5b600073ffffffffffffffffffffffffffffffffffffffff168173ffffffffffffffffffffffffffffffffffffffff161415610b45576040517f08c379a0000000000000000000000000000000000000000000000000000000008152600401610b3c90612721565b60405180910390fd5b610b4e81610ed7565b50565b60007f01ffc9a7000000000000000000000000000000000000000000000000000000007bffffffffffffffffffffffffffffffffffffffffffffffffffffffff1916827bffffffffffffffffffffffffffffffffffffffffffffffffffffffff1916149050919050565b600033905090565b8151835114610c07576040517f08c379a0000000000000000000000000000000000000000000000000000000008152600401610bfe906127b3565b60405180910390fd5b600073ffffffffffffffffffffffffffffffffffffffff168473ffffffffffffffffffffffffffffffffffffffff161415610c77576040517f08c379a0000000000000000000000000000000000000000000000000000000008152600401610c6e90612845565b60405180910390fd5b6000610c81610bbb565b9050610c9181878787878761143d565b60005b8451811015610e42576000858281518110610cb257610cb1612478565b5b602002602001015190506000858381518110610cd157610cd0612478565b5b60200260200101519050600080600084815260200190815260200160002060008b73ffffffffffffffffffffffffffffffffffffffff1673ffffffffffffffffffffffffffffffffffffffff16815260200190815260200160002054905081811015610d72576040517f08c379a0000000000000000000000000000000000000000000000000000000008152600401610d69906128d7565b60405180910390fd5b81810360008085815260200190815260200160002060008c73ffffffffffffffffffffffffffffffffffffffff1673ffffffffffffffffffffffffffffffffffffffff168152602001908152602001600020819055508160008085815260200190815260200160002060008b73ffffffffffffffffffffffffffffffffffffffff1673ffffffffffffffffffffffffffffffffffffffff1681526020019081526020016000206000828254610e2791906128f7565b9250508190555050505080610e3b906124d6565b9050610c94565b508473ffffffffffffffffffffffffffffffffffffffff168673ffffffffffffffffffffffffffffffffffffffff168273ffffffffffffffffffffffffffffffffffffffff167f4a39dc06d4c0dbc64b70af90fd698a233a518aa5d07e595d983b8c0526c8f7fb8787604051610eb992919061294d565b60405180910390a4610ecf818787878787611445565b505050505050565b6000600360009054906101000a900473ffffffffffffffffffffffffffffffffffffffff16905081600360006101000a81548173ffffffffffffffffffffffffffffffffffffffff021916908373ffffffffffffffffffffffffffffffffffffffff1602179055508173ffffffffffffffffffffffffffffffffffffffff168173ffffffffffffffffffffffffffffffffffffffff167f8be0079c531659141344cd1fd0a4f28419497f9722a3daafe3b4186f6b6457e060405160405180910390a35050565b600073ffffffffffffffffffffffffffffffffffffffff168473ffffffffffffffffffffffffffffffffffffffff16141561100d576040517f08c379a0000000000000000000000000000000000000000000000000000000008152600401611004906129f6565b60405180910390fd5b8151835114611051576040517f08c379a0000000000000000000000000000000000000000000000000000000008152600401611048906127b3565b60405180910390fd5b600061105b610bbb565b905061106c8160008787878761143d565b60005b84518110156111255783818151811061108b5761108a612478565b5b60200260200101516000808784815181106110a9576110a8612478565b5b6020026020010151815260200190815260200160002060008873ffffffffffffffffffffffffffffffffffffffff1673ffffffffffffffffffffffffffffffffffffffff168152602001908152602001600020600082825461110b91906128f7565b92505081905550808061111d906124d6565b91505061106f565b508473ffffffffffffffffffffffffffffffffffffffff16600073ffffffffffffffffffffffffffffffffffffffff168273ffffffffffffffffffffffffffffffffffffffff167f4a39dc06d4c0dbc64b70af90fd698a233a518aa5d07e595d983b8c0526c8f7fb878760405161119d92919061294d565b60405180910390a46111b481600087878787611445565b5050505050565b600073ffffffffffffffffffffffffffffffffffffffff168473ffffffffffffffffffffffffffffffffffffffff16141561122b576040517f08c379a000000000000000000000000000000000000000000000000000000000815260040161122290612845565b60405180910390fd5b6000611235610bbb565b90506112558187876112468861162c565b61124f8861162c565b8761143d565b600080600086815260200190815260200160002060008873ffffffffffffffffffffffffffffffffffffffff1673ffffffffffffffffffffffffffffffffffffffff168152602001908152602001600020549050838110156112ec576040517f08c379a00000000000000000000000000000000000000000000000000000000081526004016112e3906128d7565b60405180910390fd5b83810360008087815260200190815260200160002060008973ffffffffffffffffffffffffffffffffffffffff1673ffffffffffffffffffffffffffffffffffffffff168152602001908152602001600020819055508360008087815260200190815260200160002060008873ffffffffffffffffffffffffffffffffffffffff1673ffffffffffffffffffffffffffffffffffffffff16815260200190815260200160002060008282546113a191906128f7565b925050819055508573ffffffffffffffffffffffffffffffffffffffff168773ffffffffffffffffffffffffffffffffffffffff168373ffffffffffffffffffffffffffffffffffffffff167fc3d58168c5ae7397731d063d5bbf3d657854427343f4c083240f7aacaa2d0f62888860405161141e929190612a16565b60405180910390a46114348288888888886116a6565b50505050505050565b505050505050565b6114648473ffffffffffffffffffffffffffffffffffffffff1661188d565b15611624578373ffffffffffffffffffffffffffffffffffffffff1663bc197c8187878686866040518663ffffffff1660e01b81526004016114aa959493929190612a94565b602060405180830381600087803b1580156114c457600080fd5b505af19250505080156114f557506040513d601f19601f820116820180604052508101906114f29190612b11565b60015b61159b57611501612b4b565b806308c379a0141561155e5750611516612b6d565b806115215750611560565b806040517f08c379a00000000000000000000000000000000000000000000000000000000081526004016115559190611b33565b60405180910390fd5b505b6040517f08c379a000000000000000000000000000000000000000000000000000000000815260040161159290612c75565b60405180910390fd5b63bc197c8160e01b7bffffffffffffffffffffffffffffffffffffffffffffffffffffffff1916817bffffffffffffffffffffffffffffffffffffffffffffffffffffffff191614611622576040517f08c379a000000000000000000000000000000000000000000000000000000000815260040161161990612d07565b60405180910390fd5b505b505050505050565b60606000600167ffffffffffffffff81111561164b5761164a611b5a565b5b6040519080825280602002602001820160405280156116795781602001602082028036833780820191505090505b509050828160008151811061169157611690612478565b5b60200260200101818152505080915050919050565b6116c58473ffffffffffffffffffffffffffffffffffffffff1661188d565b15611885578373ffffffffffffffffffffffffffffffffffffffff1663f23a6e6187878686866040518663ffffffff1660e01b815260040161170b959493929190612d27565b602060405180830381600087803b15801561172557600080fd5b505af192505050801561175657506040513d601f19601f820116820180604052508101906117539190612b11565b60015b6117fc57611762612b4b565b806308c379a014156117bf5750611777612b6d565b8061178257506117c1565b806040517f08c379a00000000000000000000000000000000000000000000000000000000081526004016117b69190611b33565b60405180910390fd5b505b6040517f08c379a00000000000000000000000000000000000000000000000000000000081526004016117f390612c75565b60405180910390fd5b63f23a6e6160e01b7bffffffffffffffffffffffffffffffffffffffffffffffffffffffff1916817bffffffffffffffffffffffffffffffffffffffffffffffffffffffff191614611883576040517f08c379a000000000000000000000000000000000000000000000000000000000815260040161187a90612d07565b60405180910390fd5b505b505050505050565b600080823b905060008111915050919050565b6000604051905090565b600080fd5b600080fd5b600073ffffffffffffffffffffffffffffffffffffffff82169050919050565b60006118df826118b4565b9050919050565b6118ef816118d4565b81146118fa57600080fd5b50565b60008135905061190c816118e6565b92915050565b6000819050919050565b61192581611912565b811461193057600080fd5b50565b6000813590506119428161191c565b92915050565b6000806040838503121561195f5761195e6118aa565b5b600061196d858286016118fd565b925050602061197e85828601611933565b9150509250929050565b61199181611912565b82525050565b60006020820190506119ac6000830184611988565b92915050565b60007fffffffff0000000000000000000000000000000000000000000000000000000082169050919050565b6119e7816119b2565b81146119f257600080fd5b50565b600081359050611a04816119de565b92915050565b600060208284031215611a2057611a1f6118aa565b5b6000611a2e848285016119f5565b91505092915050565b60008115159050919050565b611a4c81611a37565b82525050565b6000602082019050611a676000830184611a43565b92915050565b600060208284031215611a8357611a826118aa565b5b6000611a9184828501611933565b91505092915050565b600081519050919050565b600082825260208201905092915050565b60005b83811015611ad4578082015181840152602081019050611ab9565b83811115611ae3576000848401525b50505050565b6000601f19601f8301169050919050565b6000611b0582611a9a565b611b0f8185611aa5565b9350611b1f818560208601611ab6565b611b2881611ae9565b840191505092915050565b60006020820190508181036000830152611b4d8184611afa565b905092915050565b600080fd5b7f4e487b7100000000000000000000000000000000000000000000000000000000600052604160045260246000fd5b611b9282611ae9565b810181811067ffffffffffffffff82111715611bb157611bb0611b5a565b5b80604052505050565b6000611bc46118a0565b9050611bd08282611b89565b919050565b600067ffffffffffffffff821115611bf057611bef611b5a565b5b602082029050602081019050919050565b600080fd5b6000611c19611c1484611bd5565b611bba565b90508083825260208201905060208402830185811115611c3c57611c3b611c01565b5b835b81811015611c655780611c518882611933565b845260208401935050602081019050611c3e565b5050509392505050565b600082601f830112611c8457611c83611b55565b5b8135611c94848260208601611c06565b91505092915050565b600080fd5b600067ffffffffffffffff821115611cbd57611cbc611b5a565b5b611cc682611ae9565b9050602081019050919050565b82818337600083830152505050565b6000611cf5611cf084611ca2565b611bba565b905082815260208101848484011115611d1157611d10611c9d565b5b611d1c848285611cd3565b509392505050565b600082601f830112611d3957611d38611b55565b5b8135611d49848260208601611ce2565b91505092915050565b600080600080600060a08688031215611d6e57611d6d6118aa565b5b6000611d7c888289016118fd565b9550506020611d8d888289016118fd565b945050604086013567ffffffffffffffff811115611dae57611dad6118af565b5b611dba88828901611c6f565b935050606086013567ffffffffffffffff811115611ddb57611dda6118af565b5b611de788828901611c6f565b925050608086013567ffffffffffffffff811115611e0857611e076118af565b5b611e1488828901611d24565b9150509295509295909350565b600067ffffffffffffffff821115611e3c57611e3b611b5a565b5b602082029050602081019050919050565b6000611e60611e5b84611e21565b611bba565b90508083825260208201905060208402830185811115611e8357611e82611c01565b5b835b81811015611eac5780611e9888826118fd565b845260208401935050602081019050611e85565b5050509392505050565b600082601f830112611ecb57611eca611b55565b5b8135611edb848260208601611e4d565b91505092915050565b60008060408385031215611efb57611efa6118aa565b5b600083013567ffffffffffffffff811115611f1957611f186118af565b5b611f2585828601611eb6565b925050602083013567ffffffffffffffff811115611f4657611f456118af565b5b611f5285828601611c6f565b9150509250929050565b600081519050919050565b600082825260208201905092915050565b6000819050602082019050919050565b611f9181611912565b82525050565b6000611fa38383611f88565b60208301905092915050565b6000602082019050919050565b6000611fc782611f5c565b611fd18185611f67565b9350611fdc83611f78565b8060005b8381101561200d578151611ff48882611f97565b9750611fff83611faf565b925050600181019050611fe0565b5085935050505092915050565b600060208201905081810360008301526120348184611fbc565b905092915050565b612045816118d4565b82525050565b6000602082019050612060600083018461203c565b92915050565b60008060006060848603121561207f5761207e6118aa565b5b600061208d868287016118fd565b935050602084013567ffffffffffffffff8111156120ae576120ad6118af565b5b6120ba86828701611c6f565b925050604084013567ffffffffffffffff8111156120db576120da6118af565b5b6120e786828701611c6f565b9150509250925092565b6120fa81611a37565b811461210557600080fd5b50565b600081359050612117816120f1565b92915050565b60008060408385031215612134576121336118aa565b5b6000612142858286016118fd565b925050602061215385828601612108565b9150509250929050565b60008060408385031215612174576121736118aa565b5b6000612182858286016118fd565b9250506020612193858286016118fd565b9150509250929050565b600080600080600060a086880312156121b9576121b86118aa565b5b60006121c7888289016118fd565b95505060206121d8888289016118fd565b94505060406121e988828901611933565b93505060606121fa88828901611933565b925050608086013567ffffffffffffffff81111561221b5761221a6118af565b5b61222788828901611d24565b9150509295509295909350565b60006020828403121561224a576122496118aa565b5b6000612258848285016118fd565b91505092915050565b7f455243313135353a2062616c616e636520717565727920666f7220746865207a60008201527f65726f2061646472657373000000000000000000000000000000000000000000602082015250565b60006122bd602b83611aa5565b91506122c882612261565b604082019050919050565b600060208201905081810360008301526122ec816122b0565b9050919050565b7f4e487b7100000000000000000000000000000000000000000000000000000000600052602260045260246000fd5b6000600282049050600182168061233a57607f821691505b6020821081141561234e5761234d6122f3565b5b50919050565b7f455243313135353a207472616e736665722063616c6c6572206973206e6f742060008201527f6f776e6572206e6f7220617070726f7665640000000000000000000000000000602082015250565b60006123b0603283611aa5565b91506123bb82612354565b604082019050919050565b600060208201905081810360008301526123df816123a3565b9050919050565b7f455243313135353a206163636f756e747320616e6420696473206c656e67746860008201527f206d69736d617463680000000000000000000000000000000000000000000000602082015250565b6000612442602983611aa5565b915061244d826123e6565b604082019050919050565b6000602082019050818103600083015261247181612435565b9050919050565b7f4e487b7100000000000000000000000000000000000000000000000000000000600052603260045260246000fd5b7f4e487b7100000000000000000000000000000000000000000000000000000000600052601160045260246000fd5b60006124e182611912565b91507fffffffffffffffffffffffffffffffffffffffffffffffffffffffffffffffff821415612514576125136124a7565b5b600182019050919050565b7f4f776e61626c653a2063616c6c6572206973206e6f7420746865206f776e6572600082015250565b6000612555602083611aa5565b91506125608261251f565b602082019050919050565b6000602082019050818103600083015261258481612548565b9050919050565b7f455243313135353a2073657474696e6720617070726f76616c2073746174757360008201527f20666f722073656c660000000000000000000000000000000000000000000000602082015250565b60006125e7602983611aa5565b91506125f28261258b565b604082019050919050565b60006020820190508181036000830152612616816125da565b9050919050565b7f455243313135353a2063616c6c6572206973206e6f74206f776e6572206e6f7260008201527f20617070726f7665640000000000000000000000000000000000000000000000602082015250565b6000612679602983611aa5565b91506126848261261d565b604082019050919050565b600060208201905081810360008301526126a88161266c565b9050919050565b7f4f776e61626c653a206e6577206f776e657220697320746865207a65726f206160008201527f6464726573730000000000000000000000000000000000000000000000000000602082015250565b600061270b602683611aa5565b9150612716826126af565b604082019050919050565b6000602082019050818103600083015261273a816126fe565b9050919050565b7f455243313135353a2069647320616e6420616d6f756e7473206c656e6774682060008201527f6d69736d61746368000000000000000000000000000000000000000000000000602082015250565b600061279d602883611aa5565b91506127a882612741565b604082019050919050565b600060208201905081810360008301526127cc81612790565b9050919050565b7f455243313135353a207472616e7366657220746f20746865207a65726f20616460008201527f6472657373000000000000000000000000000000000000000000000000000000602082015250565b600061282f602583611aa5565b915061283a826127d3565b604082019050919050565b6000602082019050818103600083015261285e81612822565b9050919050565b7f455243313135353a20696e73756666696369656e742062616c616e636520666f60008201527f72207472616e7366657200000000000000000000000000000000000000000000602082015250565b60006128c1602a83611aa5565b91506128cc82612865565b604082019050919050565b600060208201905081810360008301526128f0816128b4565b9050919050565b600061290282611912565b915061290d83611912565b9250827fffffffffffffffffffffffffffffffffffffffffffffffffffffffffffffffff03821115612942576129416124a7565b5b828201905092915050565b600060408201905081810360008301526129678185611fbc565b9050818103602083015261297b8184611fbc565b90509392505050565b7f455243313135353a206d696e7420746f20746865207a65726f2061646472657360008201527f7300000000000000000000000000000000000000000000000000000000000000602082015250565b60006129e0602183611aa5565b91506129eb82612984565b604082019050919050565b60006020820190508181036000830152612a0f816129d3565b9050919050565b6000604082019050612a2b6000830185611988565b612a386020830184611988565b9392505050565b600081519050919050565b600082825260208201905092915050565b6000612a6682612a3f565b612a708185612a4a565b9350612a80818560208601611ab6565b612a8981611ae9565b840191505092915050565b600060a082019050612aa9600083018861203c565b612ab6602083018761203c565b8181036040830152612ac88186611fbc565b90508181036060830152612adc8185611fbc565b90508181036080830152612af08184612a5b565b90509695505050505050565b600081519050612b0b816119de565b92915050565b600060208284031215612b2757612b266118aa565b5b6000612b3584828501612afc565b91505092915050565b60008160e01c9050919050565b600060033d1115612b6a5760046000803e612b67600051612b3e565b90505b90565b600060443d1015612b7d57612c00565b612b856118a0565b60043d036004823e80513d602482011167ffffffffffffffff82111715612bad575050612c00565b808201805167ffffffffffffffff811115612bcb5750505050612c00565b80602083010160043d038501811115612be8575050505050612c00565b612bf782602001850186611b89565b82955050505050505b90565b7f455243313135353a207472616e7366657220746f206e6f6e204552433131353560008201527f526563656976657220696d706c656d656e746572000000000000000000000000602082015250565b6000612c5f603483611aa5565b9150612c6a82612c03565b604082019050919050565b60006020820190508181036000830152612c8e81612c52565b9050919050565b7f455243313135353a204552433131353552656365697665722072656a6563746560008201527f6420746f6b656e73000000000000000000000000000000000000000000000000602082015250565b6000612cf1602883611aa5565b9150612cfc82612c95565b604082019050919050565b60006020820190508181036000830152612d2081612ce4565b9050919050565b600060a082019050612d3c600083018861203c565b612d49602083018761203c565b612d566040830186611988565b612d636060830185611988565b8181036080830152612d758184612a5b565b9050969550505050505056fea2646970667358221220f7fb85fc229d6bb8f1c096234c355399a92210b6633e8061c5532393c83dd5c764736f6c6343000809003368747470733a2f2f67616d652e6578616d706c652f6170692f6974656d2f7b69647d2e6a736f6e",
  "immutableReferences": {},
  "source": "// SPDX-License-Identifier: MIT\npragma solidity ^0.8.9;\n\nimport \"@openzeppelin/contracts/token/ERC1155/ERC1155.sol\";\nimport \"@openzeppelin/contracts/access/Ownable.sol\";\n\ncontract RealSkulls is ERC1155, Ownable {\n  constructor() ERC1155(\"https://game.example/api/item/{id}.json\") {}\n\n  function mint(\n    address to,\n    uint256[] memory ids,\n    uint256[] memory amounts\n  ) public onlyOwner {\n    _mintBatch(to, ids, amounts, \"\");\n  }\n}\n",
  "sourcePath": "/home/rafael/Desktop/repos/NFT/RealSkulls/contracts/RealSkulls.sol",
  "compiler": {
    "name": "solc",
    "version": "0.8.9+commit.e5eed63a.Emscripten.clang"
  },
  "schemaVersion": "3.4.3",
  "updatedAt": "2021-10-10T18:51:25.806Z",
  "devdoc": {
    "kind": "dev",
    "methods": {
      "balanceOf(address,uint256)": {
        "details": "See {IERC1155-balanceOf}. Requirements: - `account` cannot be the zero address."
      },
      "balanceOfBatch(address[],uint256[])": {
        "details": "See {IERC1155-balanceOfBatch}. Requirements: - `accounts` and `ids` must have the same length."
      },
      "isApprovedForAll(address,address)": {
        "details": "See {IERC1155-isApprovedForAll}."
      },
      "owner()": {
        "details": "Returns the address of the current owner."
      },
      "renounceOwnership()": {
        "details": "Leaves the contract without owner. It will not be possible to call `onlyOwner` functions anymore. Can only be called by the current owner. NOTE: Renouncing ownership will leave the contract without an owner, thereby removing any functionality that is only available to the owner."
      },
      "safeBatchTransferFrom(address,address,uint256[],uint256[],bytes)": {
        "details": "See {IERC1155-safeBatchTransferFrom}."
      },
      "safeTransferFrom(address,address,uint256,uint256,bytes)": {
        "details": "See {IERC1155-safeTransferFrom}."
      },
      "setApprovalForAll(address,bool)": {
        "details": "See {IERC1155-setApprovalForAll}."
      },
      "supportsInterface(bytes4)": {
        "details": "See {IERC165-supportsInterface}."
      },
      "transferOwnership(address)": {
        "details": "Transfers ownership of the contract to a new account (`newOwner`). Can only be called by the current owner."
      },
      "uri(uint256)": {
        "details": "See {IERC1155MetadataURI-uri}. This implementation returns the same URI for *all* token types. It relies on the token type ID substitution mechanism https://eips.ethereum.org/EIPS/eip-1155#metadata[defined in the EIP]. Clients calling this function must replace the `\\{id\\}` substring with the actual token type ID."
      }
    },
    "version": 1
  },
  "userdoc": {
    "kind": "user",
    "methods": {},
    "version": 1
  }
}