{
  "contractName": "RealSkulls",
  "abi": [
    {
      "inputs": [
        {
          "internalType": "address",
          "name": "marketAddress",
          "type": "address"
        }
      ],
      "stateMutability": "nonpayable",
      "type": "constructor"
    },
    {
      "anonymous": false,
      "inputs": [
        {
          "indexed": true,
          "internalType": "address",
          "name": "account",
          "type": "address"
        },
        {
          "indexed": true,
          "internalType": "address",
          "name": "operator",
          "type": "address"
        },
        {
          "indexed": false,
          "internalType": "bool",
          "name": "approved",
          "type": "bool"
        }
      ],
      "name": "ApprovalForAll",
      "type": "event"
    },
    {
      "anonymous": false,
      "inputs": [
        {
          "indexed": true,
          "internalType": "address",
          "name": "previousOwner",
          "type": "address"
        },
        {
          "indexed": true,
          "internalType": "address",
          "name": "newOwner",
          "type": "address"
        }
      ],
      "name": "OwnershipTransferred",
      "type": "event"
    },
    {
      "anonymous": false,
      "inputs": [
        {
          "indexed": true,
          "internalType": "address",
          "name": "operator",
          "type": "address"
        },
        {
          "indexed": true,
          "internalType": "address",
          "name": "from",
          "type": "address"
        },
        {
          "indexed": true,
          "internalType": "address",
          "name": "to",
          "type": "address"
        },
        {
          "indexed": false,
          "internalType": "uint256[]",
          "name": "ids",
          "type": "uint256[]"
        },
        {
          "indexed": false,
          "internalType": "uint256[]",
          "name": "values",
          "type": "uint256[]"
        }
      ],
      "name": "TransferBatch",
      "type": "event"
    },
    {
      "anonymous": false,
      "inputs": [
        {
          "indexed": true,
          "internalType": "address",
          "name": "operator",
          "type": "address"
        },
        {
          "indexed": true,
          "internalType": "address",
          "name": "from",
          "type": "address"
        },
        {
          "indexed": true,
          "internalType": "address",
          "name": "to",
          "type": "address"
        },
        {
          "indexed": false,
          "internalType": "uint256",
          "name": "id",
          "type": "uint256"
        },
        {
          "indexed": false,
          "internalType": "uint256",
          "name": "value",
          "type": "uint256"
        }
      ],
      "name": "TransferSingle",
      "type": "event"
    },
    {
      "anonymous": false,
      "inputs": [
        {
          "indexed": false,
          "internalType": "string",
          "name": "value",
          "type": "string"
        },
        {
          "indexed": true,
          "internalType": "uint256",
          "name": "id",
          "type": "uint256"
        }
      ],
      "name": "URI",
      "type": "event"
    },
    {
      "inputs": [
        {
          "internalType": "address",
          "name": "account",
          "type": "address"
        },
        {
          "internalType": "uint256",
          "name": "id",
          "type": "uint256"
        }
      ],
      "name": "balanceOf",
      "outputs": [
        {
          "internalType": "uint256",
          "name": "",
          "type": "uint256"
        }
      ],
      "stateMutability": "view",
      "type": "function",
      "constant": true
    },
    {
      "inputs": [
        {
          "internalType": "address[]",
          "name": "accounts",
          "type": "address[]"
        },
        {
          "internalType": "uint256[]",
          "name": "ids",
          "type": "uint256[]"
        }
      ],
      "name": "balanceOfBatch",
      "outputs": [
        {
          "internalType": "uint256[]",
          "name": "",
          "type": "uint256[]"
        }
      ],
      "stateMutability": "view",
      "type": "function",
      "constant": true
    },
    {
      "inputs": [],
      "name": "currentId",
      "outputs": [
        {
          "internalType": "uint256",
          "name": "",
          "type": "uint256"
        }
      ],
      "stateMutability": "view",
      "type": "function",
      "constant": true
    },
    {
      "inputs": [
        {
          "internalType": "address",
          "name": "account",
          "type": "address"
        },
        {
          "internalType": "address",
          "name": "operator",
          "type": "address"
        }
      ],
      "name": "isApprovedForAll",
      "outputs": [
        {
          "internalType": "bool",
          "name": "",
          "type": "bool"
        }
      ],
      "stateMutability": "view",
      "type": "function",
      "constant": true
    },
    {
      "inputs": [],
      "name": "owner",
      "outputs": [
        {
          "internalType": "address",
          "name": "",
          "type": "address"
        }
      ],
      "stateMutability": "view",
      "type": "function",
      "constant": true
    },
    {
      "inputs": [],
      "name": "renounceOwnership",
      "outputs": [],
      "stateMutability": "nonpayable",
      "type": "function"
    },
    {
      "inputs": [
        {
          "internalType": "address",
          "name": "from",
          "type": "address"
        },
        {
          "internalType": "address",
          "name": "to",
          "type": "address"
        },
        {
          "internalType": "uint256[]",
          "name": "ids",
          "type": "uint256[]"
        },
        {
          "internalType": "uint256[]",
          "name": "amounts",
          "type": "uint256[]"
        },
        {
          "internalType": "bytes",
          "name": "data",
          "type": "bytes"
        }
      ],
      "name": "safeBatchTransferFrom",
      "outputs": [],
      "stateMutability": "nonpayable",
      "type": "function"
    },
    {
      "inputs": [
        {
          "internalType": "address",
          "name": "from",
          "type": "address"
        },
        {
          "internalType": "address",
          "name": "to",
          "type": "address"
        },
        {
          "internalType": "uint256",
          "name": "id",
          "type": "uint256"
        },
        {
          "internalType": "uint256",
          "name": "amount",
          "type": "uint256"
        },
        {
          "internalType": "bytes",
          "name": "data",
          "type": "bytes"
        }
      ],
      "name": "safeTransferFrom",
      "outputs": [],
      "stateMutability": "nonpayable",
      "type": "function"
    },
    {
      "inputs": [
        {
          "internalType": "address",
          "name": "operator",
          "type": "address"
        },
        {
          "internalType": "bool",
          "name": "approved",
          "type": "bool"
        }
      ],
      "name": "setApprovalForAll",
      "outputs": [],
      "stateMutability": "nonpayable",
      "type": "function"
    },
    {
      "inputs": [
        {
          "internalType": "bytes4",
          "name": "interfaceId",
          "type": "bytes4"
        }
      ],
      "name": "supportsInterface",
      "outputs": [
        {
          "internalType": "bool",
          "name": "",
          "type": "bool"
        }
      ],
      "stateMutability": "view",
      "type": "function",
      "constant": true
    },
    {
      "inputs": [
        {
          "internalType": "address",
          "name": "newOwner",
          "type": "address"
        }
      ],
      "name": "transferOwnership",
      "outputs": [],
      "stateMutability": "nonpayable",
      "type": "function"
    },
    {
      "inputs": [
        {
          "internalType": "uint256",
          "name": "",
          "type": "uint256"
        }
      ],
      "name": "uri",
      "outputs": [
        {
          "internalType": "string",
          "name": "",
          "type": "string"
        }
      ],
      "stateMutability": "view",
      "type": "function",
      "constant": true
    },
    {
      "inputs": [
        {
          "internalType": "address",
          "name": "to",
          "type": "address"
        },
        {
          "internalType": "uint256",
          "name": "amount",
          "type": "uint256"
        }
      ],
      "name": "mint",
      "outputs": [],
      "stateMutability": "nonpayable",
      "type": "function"
    },
    {
      "inputs": [
        {
          "internalType": "uint256",
          "name": "tokenId",
          "type": "uint256"
        }
      ],
      "name": "getSupply",
      "outputs": [
        {
          "internalType": "uint256",
          "name": "",
          "type": "uint256"
        }
      ],
      "stateMutability": "view",
      "type": "function",
      "constant": true
    }
  ],
  "bytecode": "0x60806040523480156200001157600080fd5b506040516200310b3803806200310b83398181016040528101906200003791906200028e565b604051806060016040528060278152602001620030e46027913962000062816200008a60201b60201c565b506200008362000077620000a660201b60201c565b620000ae60201b60201c565b5062000325565b8060029080519060200190620000a292919062000174565b5050565b600033905090565b6000600360009054906101000a900473ffffffffffffffffffffffffffffffffffffffff16905081600360006101000a81548173ffffffffffffffffffffffffffffffffffffffff021916908373ffffffffffffffffffffffffffffffffffffffff1602179055508173ffffffffffffffffffffffffffffffffffffffff168173ffffffffffffffffffffffffffffffffffffffff167f8be0079c531659141344cd1fd0a4f28419497f9722a3daafe3b4186f6b6457e060405160405180910390a35050565b8280546200018290620002ef565b90600052602060002090601f016020900481019282620001a65760008555620001f2565b82601f10620001c157805160ff1916838001178555620001f2565b82800160010185558215620001f2579182015b82811115620001f1578251825591602001919060010190620001d4565b5b50905062000201919062000205565b5090565b5b808211156200022057600081600090555060010162000206565b5090565b600080fd5b600073ffffffffffffffffffffffffffffffffffffffff82169050919050565b6000620002568262000229565b9050919050565b620002688162000249565b81146200027457600080fd5b50565b60008151905062000288816200025d565b92915050565b600060208284031215620002a757620002a662000224565b5b6000620002b78482850162000277565b91505092915050565b7f4e487b7100000000000000000000000000000000000000000000000000000000600052602260045260246000fd5b600060028204905060018216806200030857607f821691505b602082108114156200031f576200031e620002c0565b5b50919050565b612daf80620003356000396000f3fe608060405234801561001057600080fd5b50600436106100e95760003560e01c80638da5cb5b1161008c578063e985e9c511610066578063e985e9c514610248578063f242432a14610278578063f2fde38b14610294578063f77ee79d146102b0576100e9565b80638da5cb5b146101f0578063a22cb4651461020e578063e00dd1611461022a576100e9565b80632eb2c2d6116100c85780632eb2c2d61461017e57806340c10f191461019a5780634e1273f4146101b6578063715018a6146101e6576100e9565b8062fdd58e146100ee57806301ffc9a71461011e5780630e89341c1461014e575b600080fd5b610108600480360381019061010391906119cb565b6102e0565b6040516101159190611a1a565b60405180910390f35b61013860048036038101906101339190611a8d565b6103a9565b6040516101459190611ad5565b60405180910390f35b61016860048036038101906101639190611af0565b61048b565b6040516101759190611bb6565b60405180910390f35b61019860048036038101906101939190611dd5565b61051f565b005b6101b460048036038101906101af91906119cb565b6105c0565b005b6101d060048036038101906101cb9190611f67565b6106c0565b6040516101dd919061209d565b60405180910390f35b6101ee6107d9565b005b6101f8610861565b60405161020591906120ce565b60405180910390f35b61022860048036038101906102239190612115565b61088b565b005b610232610a0c565b60405161023f9190611a1a565b60405180910390f35b610262600480360381019061025d9190612155565b610a12565b60405161026f9190611ad5565b60405180910390f35b610292600480360381019061028d9190612195565b610aa6565b005b6102ae60048036038101906102a9919061222c565b610b47565b005b6102ca60048036038101906102c59190611af0565b610c3f565b6040516102d79190611a1a565b60405180910390f35b60008073ffffffffffffffffffffffffffffffffffffffff168373ffffffffffffffffffffffffffffffffffffffff161415610351576040517f08c379a0000000000000000000000000000000000000000000000000000000008152600401610348906122cb565b60405180910390fd5b60008083815260200190815260200160002060008473ffffffffffffffffffffffffffffffffffffffff1673ffffffffffffffffffffffffffffffffffffffff16815260200190815260200160002054905092915050565b60007fd9b67a26000000000000000000000000000000000000000000000000000000007bffffffffffffffffffffffffffffffffffffffffffffffffffffffff1916827bffffffffffffffffffffffffffffffffffffffffffffffffffffffff1916148061047457507f0e89341c000000000000000000000000000000000000000000000000000000007bffffffffffffffffffffffffffffffffffffffffffffffffffffffff1916827bffffffffffffffffffffffffffffffffffffffffffffffffffffffff1916145b80610484575061048382610c5c565b5b9050919050565b60606002805461049a9061231a565b80601f01602080910402602001604051908101604052809291908181526020018280546104c69061231a565b80156105135780601f106104e857610100808354040283529160200191610513565b820191906000526020600020905b8154815290600101906020018083116104f657829003601f168201915b50505050509050919050565b610527610cc6565b73ffffffffffffffffffffffffffffffffffffffff168573ffffffffffffffffffffffffffffffffffffffff16148061056d575061056c85610567610cc6565b610a12565b5b6105ac576040517f08c379a00000000000000000000000000000000000000000000000000000000081526004016105a3906123be565b60405180910390fd5b6105b98585858585610cce565b5050505050565b6105c8610cc6565b73ffffffffffffffffffffffffffffffffffffffff166105e6610861565b73ffffffffffffffffffffffffffffffffffffffff161461063c576040517f08c379a00000000000000000000000000000000000000000000000000000000081526004016106339061242a565b60405180910390fd5b60005b818110156106bb5761066583600454600160405180602001604052806000815250610fe2565b600560006004548152602001908152602001600020600081548092919061068b90612479565b9190505550600460008154809291906106a390612479565b919050555080806106b390612479565b91505061063f565b505050565b60608151835114610706576040517f08c379a00000000000000000000000000000000000000000000000000000000081526004016106fd90612534565b60405180910390fd5b6000835167ffffffffffffffff81111561072357610722611bdd565b5b6040519080825280602002602001820160405280156107515781602001602082028036833780820191505090505b50905060005b84518110156107ce5761079e85828151811061077657610775612554565b5b602002602001015185838151811061079157610790612554565b5b60200260200101516102e0565b8282815181106107b1576107b0612554565b5b602002602001018181525050806107c790612479565b9050610757565b508091505092915050565b6107e1610cc6565b73ffffffffffffffffffffffffffffffffffffffff166107ff610861565b73ffffffffffffffffffffffffffffffffffffffff1614610855576040517f08c379a000000000000000000000000000000000000000000000000000000000815260040161084c9061242a565b60405180910390fd5b61085f6000611178565b565b6000600360009054906101000a900473ffffffffffffffffffffffffffffffffffffffff16905090565b8173ffffffffffffffffffffffffffffffffffffffff166108aa610cc6565b73ffffffffffffffffffffffffffffffffffffffff161415610901576040517f08c379a00000000000000000000000000000000000000000000000000000000081526004016108f8906125f5565b60405180910390fd5b806001600061090e610cc6565b73ffffffffffffffffffffffffffffffffffffffff1673ffffffffffffffffffffffffffffffffffffffff16815260200190815260200160002060008473ffffffffffffffffffffffffffffffffffffffff1673ffffffffffffffffffffffffffffffffffffffff16815260200190815260200160002060006101000a81548160ff0219169083151502179055508173ffffffffffffffffffffffffffffffffffffffff166109bb610cc6565b73ffffffffffffffffffffffffffffffffffffffff167f17307eab39ab6107e8899845ad3d59bd9653f200f220920489ca2b5937696c3183604051610a009190611ad5565b60405180910390a35050565b60045481565b6000600160008473ffffffffffffffffffffffffffffffffffffffff1673ffffffffffffffffffffffffffffffffffffffff16815260200190815260200160002060008373ffffffffffffffffffffffffffffffffffffffff1673ffffffffffffffffffffffffffffffffffffffff16815260200190815260200160002060009054906101000a900460ff16905092915050565b610aae610cc6565b73ffffffffffffffffffffffffffffffffffffffff168573ffffffffffffffffffffffffffffffffffffffff161480610af45750610af385610aee610cc6565b610a12565b5b610b33576040517f08c379a0000000000000000000000000000000000000000000000000000000008152600401610b2a90612687565b60405180910390fd5b610b40858585858561123e565b5050505050565b610b4f610cc6565b73ffffffffffffffffffffffffffffffffffffffff16610b6d610861565b73ffffffffffffffffffffffffffffffffffffffff1614610bc3576040517f08c379a0000000000000000000000000000000000000000000000000000000008152600401610bba9061242a565b60405180910390fd5b600073ffffffffffffffffffffffffffffffffffffffff168173ffffffffffffffffffffffffffffffffffffffff161415610c33576040517f08c379a0000000000000000000000000000000000000000000000000000000008152600401610c2a90612719565b60405180910390fd5b610c3c81611178565b50565b600060056000838152602001908152602001600020549050919050565b60007f01ffc9a7000000000000000000000000000000000000000000000000000000007bffffffffffffffffffffffffffffffffffffffffffffffffffffffff1916827bffffffffffffffffffffffffffffffffffffffffffffffffffffffff1916149050919050565b600033905090565b8151835114610d12576040517f08c379a0000000000000000000000000000000000000000000000000000000008152600401610d09906127ab565b60405180910390fd5b600073ffffffffffffffffffffffffffffffffffffffff168473ffffffffffffffffffffffffffffffffffffffff161415610d82576040517f08c379a0000000000000000000000000000000000000000000000000000000008152600401610d799061283d565b60405180910390fd5b6000610d8c610cc6565b9050610d9c8187878787876114c0565b60005b8451811015610f4d576000858281518110610dbd57610dbc612554565b5b602002602001015190506000858381518110610ddc57610ddb612554565b5b60200260200101519050600080600084815260200190815260200160002060008b73ffffffffffffffffffffffffffffffffffffffff1673ffffffffffffffffffffffffffffffffffffffff16815260200190815260200160002054905081811015610e7d576040517f08c379a0000000000000000000000000000000000000000000000000000000008152600401610e74906128cf565b60405180910390fd5b81810360008085815260200190815260200160002060008c73ffffffffffffffffffffffffffffffffffffffff1673ffffffffffffffffffffffffffffffffffffffff168152602001908152602001600020819055508160008085815260200190815260200160002060008b73ffffffffffffffffffffffffffffffffffffffff1673ffffffffffffffffffffffffffffffffffffffff1681526020019081526020016000206000828254610f3291906128ef565b9250508190555050505080610f4690612479565b9050610d9f565b508473ffffffffffffffffffffffffffffffffffffffff168673ffffffffffffffffffffffffffffffffffffffff168273ffffffffffffffffffffffffffffffffffffffff167f4a39dc06d4c0dbc64b70af90fd698a233a518aa5d07e595d983b8c0526c8f7fb8787604051610fc4929190612945565b60405180910390a4610fda8187878787876114c8565b505050505050565b600073ffffffffffffffffffffffffffffffffffffffff168473ffffffffffffffffffffffffffffffffffffffff161415611052576040517f08c379a0000000000000000000000000000000000000000000000000000000008152600401611049906129ee565b60405180910390fd5b600061105c610cc6565b905061107d8160008761106e886116af565b611077886116af565b876114c0565b8260008086815260200190815260200160002060008773ffffffffffffffffffffffffffffffffffffffff1673ffffffffffffffffffffffffffffffffffffffff16815260200190815260200160002060008282546110dc91906128ef565b925050819055508473ffffffffffffffffffffffffffffffffffffffff16600073ffffffffffffffffffffffffffffffffffffffff168273ffffffffffffffffffffffffffffffffffffffff167fc3d58168c5ae7397731d063d5bbf3d657854427343f4c083240f7aacaa2d0f62878760405161115a929190612a0e565b60405180910390a461117181600087878787611729565b5050505050565b6000600360009054906101000a900473ffffffffffffffffffffffffffffffffffffffff16905081600360006101000a81548173ffffffffffffffffffffffffffffffffffffffff021916908373ffffffffffffffffffffffffffffffffffffffff1602179055508173ffffffffffffffffffffffffffffffffffffffff168173ffffffffffffffffffffffffffffffffffffffff167f8be0079c531659141344cd1fd0a4f28419497f9722a3daafe3b4186f6b6457e060405160405180910390a35050565b600073ffffffffffffffffffffffffffffffffffffffff168473ffffffffffffffffffffffffffffffffffffffff1614156112ae576040517f08c379a00000000000000000000000000000000000000000000000000000000081526004016112a59061283d565b60405180910390fd5b60006112b8610cc6565b90506112d88187876112c9886116af565b6112d2886116af565b876114c0565b600080600086815260200190815260200160002060008873ffffffffffffffffffffffffffffffffffffffff1673ffffffffffffffffffffffffffffffffffffffff1681526020019081526020016000205490508381101561136f576040517f08c379a0000000000000000000000000000000000000000000000000000000008152600401611366906128cf565b60405180910390fd5b83810360008087815260200190815260200160002060008973ffffffffffffffffffffffffffffffffffffffff1673ffffffffffffffffffffffffffffffffffffffff168152602001908152602001600020819055508360008087815260200190815260200160002060008873ffffffffffffffffffffffffffffffffffffffff1673ffffffffffffffffffffffffffffffffffffffff168152602001908152602001600020600082825461142491906128ef565b925050819055508573ffffffffffffffffffffffffffffffffffffffff168773ffffffffffffffffffffffffffffffffffffffff168373ffffffffffffffffffffffffffffffffffffffff167fc3d58168c5ae7397731d063d5bbf3d657854427343f4c083240f7aacaa2d0f6288886040516114a1929190612a0e565b60405180910390a46114b7828888888888611729565b50505050505050565b505050505050565b6114e78473ffffffffffffffffffffffffffffffffffffffff16611910565b156116a7578373ffffffffffffffffffffffffffffffffffffffff1663bc197c8187878686866040518663ffffffff1660e01b815260040161152d959493929190612a8c565b602060405180830381600087803b15801561154757600080fd5b505af192505050801561157857506040513d601f19601f820116820180604052508101906115759190612b09565b60015b61161e57611584612b43565b806308c379a014156115e15750611599612b65565b806115a457506115e3565b806040517f08c379a00000000000000000000000000000000000000000000000000000000081526004016115d89190611bb6565b60405180910390fd5b505b6040517f08c379a000000000000000000000000000000000000000000000000000000000815260040161161590612c6d565b60405180910390fd5b63bc197c8160e01b7bffffffffffffffffffffffffffffffffffffffffffffffffffffffff1916817bffffffffffffffffffffffffffffffffffffffffffffffffffffffff1916146116a5576040517f08c379a000000000000000000000000000000000000000000000000000000000815260040161169c90612cff565b60405180910390fd5b505b505050505050565b60606000600167ffffffffffffffff8111156116ce576116cd611bdd565b5b6040519080825280602002602001820160405280156116fc5781602001602082028036833780820191505090505b509050828160008151811061171457611713612554565b5b60200260200101818152505080915050919050565b6117488473ffffffffffffffffffffffffffffffffffffffff16611910565b15611908578373ffffffffffffffffffffffffffffffffffffffff1663f23a6e6187878686866040518663ffffffff1660e01b815260040161178e959493929190612d1f565b602060405180830381600087803b1580156117a857600080fd5b505af19250505080156117d957506040513d601f19601f820116820180604052508101906117d69190612b09565b60015b61187f576117e5612b43565b806308c379a0141561184257506117fa612b65565b806118055750611844565b806040517f08c379a00000000000000000000000000000000000000000000000000000000081526004016118399190611bb6565b60405180910390fd5b505b6040517f08c379a000000000000000000000000000000000000000000000000000000000815260040161187690612c6d565b60405180910390fd5b63f23a6e6160e01b7bffffffffffffffffffffffffffffffffffffffffffffffffffffffff1916817bffffffffffffffffffffffffffffffffffffffffffffffffffffffff191614611906576040517f08c379a00000000000000000000000000000000000000000000000000000000081526004016118fd90612cff565b60405180910390fd5b505b505050505050565b600080823b905060008111915050919050565b6000604051905090565b600080fd5b600080fd5b600073ffffffffffffffffffffffffffffffffffffffff82169050919050565b600061196282611937565b9050919050565b61197281611957565b811461197d57600080fd5b50565b60008135905061198f81611969565b92915050565b6000819050919050565b6119a881611995565b81146119b357600080fd5b50565b6000813590506119c58161199f565b92915050565b600080604083850312156119e2576119e161192d565b5b60006119f085828601611980565b9250506020611a01858286016119b6565b9150509250929050565b611a1481611995565b82525050565b6000602082019050611a2f6000830184611a0b565b92915050565b60007fffffffff0000000000000000000000000000000000000000000000000000000082169050919050565b611a6a81611a35565b8114611a7557600080fd5b50565b600081359050611a8781611a61565b92915050565b600060208284031215611aa357611aa261192d565b5b6000611ab184828501611a78565b91505092915050565b60008115159050919050565b611acf81611aba565b82525050565b6000602082019050611aea6000830184611ac6565b92915050565b600060208284031215611b0657611b0561192d565b5b6000611b14848285016119b6565b91505092915050565b600081519050919050565b600082825260208201905092915050565b60005b83811015611b57578082015181840152602081019050611b3c565b83811115611b66576000848401525b50505050565b6000601f19601f8301169050919050565b6000611b8882611b1d565b611b928185611b28565b9350611ba2818560208601611b39565b611bab81611b6c565b840191505092915050565b60006020820190508181036000830152611bd08184611b7d565b905092915050565b600080fd5b7f4e487b7100000000000000000000000000000000000000000000000000000000600052604160045260246000fd5b611c1582611b6c565b810181811067ffffffffffffffff82111715611c3457611c33611bdd565b5b80604052505050565b6000611c47611923565b9050611c538282611c0c565b919050565b600067ffffffffffffffff821115611c7357611c72611bdd565b5b602082029050602081019050919050565b600080fd5b6000611c9c611c9784611c58565b611c3d565b90508083825260208201905060208402830185811115611cbf57611cbe611c84565b5b835b81811015611ce85780611cd488826119b6565b845260208401935050602081019050611cc1565b5050509392505050565b600082601f830112611d0757611d06611bd8565b5b8135611d17848260208601611c89565b91505092915050565b600080fd5b600067ffffffffffffffff821115611d4057611d3f611bdd565b5b611d4982611b6c565b9050602081019050919050565b82818337600083830152505050565b6000611d78611d7384611d25565b611c3d565b905082815260208101848484011115611d9457611d93611d20565b5b611d9f848285611d56565b509392505050565b600082601f830112611dbc57611dbb611bd8565b5b8135611dcc848260208601611d65565b91505092915050565b600080600080600060a08688031215611df157611df061192d565b5b6000611dff88828901611980565b9550506020611e1088828901611980565b945050604086013567ffffffffffffffff811115611e3157611e30611932565b5b611e3d88828901611cf2565b935050606086013567ffffffffffffffff811115611e5e57611e5d611932565b5b611e6a88828901611cf2565b925050608086013567ffffffffffffffff811115611e8b57611e8a611932565b5b611e9788828901611da7565b9150509295509295909350565b600067ffffffffffffffff821115611ebf57611ebe611bdd565b5b602082029050602081019050919050565b6000611ee3611ede84611ea4565b611c3d565b90508083825260208201905060208402830185811115611f0657611f05611c84565b5b835b81811015611f2f5780611f1b8882611980565b845260208401935050602081019050611f08565b5050509392505050565b600082601f830112611f4e57611f4d611bd8565b5b8135611f5e848260208601611ed0565b91505092915050565b60008060408385031215611f7e57611f7d61192d565b5b600083013567ffffffffffffffff811115611f9c57611f9b611932565b5b611fa885828601611f39565b925050602083013567ffffffffffffffff811115611fc957611fc8611932565b5b611fd585828601611cf2565b9150509250929050565b600081519050919050565b600082825260208201905092915050565b6000819050602082019050919050565b61201481611995565b82525050565b6000612026838361200b565b60208301905092915050565b6000602082019050919050565b600061204a82611fdf565b6120548185611fea565b935061205f83611ffb565b8060005b83811015612090578151612077888261201a565b975061208283612032565b925050600181019050612063565b5085935050505092915050565b600060208201905081810360008301526120b7818461203f565b905092915050565b6120c881611957565b82525050565b60006020820190506120e360008301846120bf565b92915050565b6120f281611aba565b81146120fd57600080fd5b50565b60008135905061210f816120e9565b92915050565b6000806040838503121561212c5761212b61192d565b5b600061213a85828601611980565b925050602061214b85828601612100565b9150509250929050565b6000806040838503121561216c5761216b61192d565b5b600061217a85828601611980565b925050602061218b85828601611980565b9150509250929050565b600080600080600060a086880312156121b1576121b061192d565b5b60006121bf88828901611980565b95505060206121d088828901611980565b94505060406121e1888289016119b6565b93505060606121f2888289016119b6565b925050608086013567ffffffffffffffff81111561221357612212611932565b5b61221f88828901611da7565b9150509295509295909350565b6000602082840312156122425761224161192d565b5b600061225084828501611980565b91505092915050565b7f455243313135353a2062616c616e636520717565727920666f7220746865207a60008201527f65726f2061646472657373000000000000000000000000000000000000000000602082015250565b60006122b5602b83611b28565b91506122c082612259565b604082019050919050565b600060208201905081810360008301526122e4816122a8565b9050919050565b7f4e487b7100000000000000000000000000000000000000000000000000000000600052602260045260246000fd5b6000600282049050600182168061233257607f821691505b60208210811415612346576123456122eb565b5b50919050565b7f455243313135353a207472616e736665722063616c6c6572206973206e6f742060008201527f6f776e6572206e6f7220617070726f7665640000000000000000000000000000602082015250565b60006123a8603283611b28565b91506123b38261234c565b604082019050919050565b600060208201905081810360008301526123d78161239b565b9050919050565b7f4f776e61626c653a2063616c6c6572206973206e6f7420746865206f776e6572600082015250565b6000612414602083611b28565b915061241f826123de565b602082019050919050565b6000602082019050818103600083015261244381612407565b9050919050565b7f4e487b7100000000000000000000000000000000000000000000000000000000600052601160045260246000fd5b600061248482611995565b91507fffffffffffffffffffffffffffffffffffffffffffffffffffffffffffffffff8214156124b7576124b661244a565b5b600182019050919050565b7f455243313135353a206163636f756e747320616e6420696473206c656e67746860008201527f206d69736d617463680000000000000000000000000000000000000000000000602082015250565b600061251e602983611b28565b9150612529826124c2565b604082019050919050565b6000602082019050818103600083015261254d81612511565b9050919050565b7f4e487b7100000000000000000000000000000000000000000000000000000000600052603260045260246000fd5b7f455243313135353a2073657474696e6720617070726f76616c2073746174757360008201527f20666f722073656c660000000000000000000000000000000000000000000000602082015250565b60006125df602983611b28565b91506125ea82612583565b604082019050919050565b6000602082019050818103600083015261260e816125d2565b9050919050565b7f455243313135353a2063616c6c6572206973206e6f74206f776e6572206e6f7260008201527f20617070726f7665640000000000000000000000000000000000000000000000602082015250565b6000612671602983611b28565b915061267c82612615565b604082019050919050565b600060208201905081810360008301526126a081612664565b9050919050565b7f4f776e61626c653a206e6577206f776e657220697320746865207a65726f206160008201527f6464726573730000000000000000000000000000000000000000000000000000602082015250565b6000612703602683611b28565b915061270e826126a7565b604082019050919050565b60006020820190508181036000830152612732816126f6565b9050919050565b7f455243313135353a2069647320616e6420616d6f756e7473206c656e6774682060008201527f6d69736d61746368000000000000000000000000000000000000000000000000602082015250565b6000612795602883611b28565b91506127a082612739565b604082019050919050565b600060208201905081810360008301526127c481612788565b9050919050565b7f455243313135353a207472616e7366657220746f20746865207a65726f20616460008201527f6472657373000000000000000000000000000000000000000000000000000000602082015250565b6000612827602583611b28565b9150612832826127cb565b604082019050919050565b600060208201905081810360008301526128568161281a565b9050919050565b7f455243313135353a20696e73756666696369656e742062616c616e636520666f60008201527f72207472616e7366657200000000000000000000000000000000000000000000602082015250565b60006128b9602a83611b28565b91506128c48261285d565b604082019050919050565b600060208201905081810360008301526128e8816128ac565b9050919050565b60006128fa82611995565b915061290583611995565b9250827fffffffffffffffffffffffffffffffffffffffffffffffffffffffffffffffff0382111561293a5761293961244a565b5b828201905092915050565b6000604082019050818103600083015261295f818561203f565b90508181036020830152612973818461203f565b90509392505050565b7f455243313135353a206d696e7420746f20746865207a65726f2061646472657360008201527f7300000000000000000000000000000000000000000000000000000000000000602082015250565b60006129d8602183611b28565b91506129e38261297c565b604082019050919050565b60006020820190508181036000830152612a07816129cb565b9050919050565b6000604082019050612a236000830185611a0b565b612a306020830184611a0b565b9392505050565b600081519050919050565b600082825260208201905092915050565b6000612a5e82612a37565b612a688185612a42565b9350612a78818560208601611b39565b612a8181611b6c565b840191505092915050565b600060a082019050612aa160008301886120bf565b612aae60208301876120bf565b8181036040830152612ac0818661203f565b90508181036060830152612ad4818561203f565b90508181036080830152612ae88184612a53565b90509695505050505050565b600081519050612b0381611a61565b92915050565b600060208284031215612b1f57612b1e61192d565b5b6000612b2d84828501612af4565b91505092915050565b60008160e01c9050919050565b600060033d1115612b625760046000803e612b5f600051612b36565b90505b90565b600060443d1015612b7557612bf8565b612b7d611923565b60043d036004823e80513d602482011167ffffffffffffffff82111715612ba5575050612bf8565b808201805167ffffffffffffffff811115612bc35750505050612bf8565b80602083010160043d038501811115612be0575050505050612bf8565b612bef82602001850186611c0c565b82955050505050505b90565b7f455243313135353a207472616e7366657220746f206e6f6e204552433131353560008201527f526563656976657220696d706c656d656e746572000000000000000000000000602082015250565b6000612c57603483611b28565b9150612c6282612bfb565b604082019050919050565b60006020820190508181036000830152612c8681612c4a565b9050919050565b7f455243313135353a204552433131353552656365697665722072656a6563746560008201527f6420746f6b656e73000000000000000000000000000000000000000000000000602082015250565b6000612ce9602883611b28565b9150612cf482612c8d565b604082019050919050565b60006020820190508181036000830152612d1881612cdc565b9050919050565b600060a082019050612d3460008301886120bf565b612d4160208301876120bf565b612d4e6040830186611a0b565b612d5b6060830185611a0b565b8181036080830152612d6d8184612a53565b9050969550505050505056fea264697066735822122038760ba77fadf0f519bfe501aa2d97e376517d03037ca0a9f396a0f26294777864736f6c6343000809003368747470733a2f2f67616d652e6578616d706c652f6170692f6974656d2f7b69647d2e6a736f6e",
  "immutableReferences": {},
  "source": "// SPDX-License-Identifier: MIT\npragma solidity ^0.8.9;\n\nimport \"@openzeppelin/contracts/token/ERC1155/ERC1155.sol\";\nimport \"@openzeppelin/contracts/access/Ownable.sol\";\n\ncontract RealSkulls is ERC1155, Ownable {\n  uint256 public currentId;\n  mapping(uint256 => uint256) private _tokenSupply;\n\n  constructor(address marketAddress)\n    ERC1155(\"https://game.example/api/item/{id}.json\")\n  {}\n\n  function mint(address to, uint256 amount) public onlyOwner {\n    for (uint256 i = 0; i < amount; i++) {\n      _mint(to, currentId, 1, \"\");\n      _tokenSupply[currentId]++;\n      currentId++;\n    }\n  }\n\n  function getSupply(uint256 tokenId) public view returns (uint256) {\n    return _tokenSupply[tokenId];\n  }\n}\n",
  "sourcePath": "/home/rafael/Desktop/repos/NFT/RealSkulls/contracts/RealSkulls.sol",
  "compiler": {
    "name": "solc",
    "version": "0.8.9+commit.e5eed63a.Emscripten.clang"
  },
  "schemaVersion": "3.4.3",
  "updatedAt": "2021-10-16T05:04:35.271Z",
  "networkType": "ethereum",
  "devdoc": {
    "kind": "dev",
    "methods": {
      "balanceOf(address,uint256)": {
        "details": "See {IERC1155-balanceOf}. Requirements: - `account` cannot be the zero address."
      },
      "balanceOfBatch(address[],uint256[])": {
        "details": "See {IERC1155-balanceOfBatch}. Requirements: - `accounts` and `ids` must have the same length."
      },
      "isApprovedForAll(address,address)": {
        "details": "See {IERC1155-isApprovedForAll}."
      },
      "owner()": {
        "details": "Returns the address of the current owner."
      },
      "renounceOwnership()": {
        "details": "Leaves the contract without owner. It will not be possible to call `onlyOwner` functions anymore. Can only be called by the current owner. NOTE: Renouncing ownership will leave the contract without an owner, thereby removing any functionality that is only available to the owner."
      },
      "safeBatchTransferFrom(address,address,uint256[],uint256[],bytes)": {
        "details": "See {IERC1155-safeBatchTransferFrom}."
      },
      "safeTransferFrom(address,address,uint256,uint256,bytes)": {
        "details": "See {IERC1155-safeTransferFrom}."
      },
      "setApprovalForAll(address,bool)": {
        "details": "See {IERC1155-setApprovalForAll}."
      },
      "supportsInterface(bytes4)": {
        "details": "See {IERC165-supportsInterface}."
      },
      "transferOwnership(address)": {
        "details": "Transfers ownership of the contract to a new account (`newOwner`). Can only be called by the current owner."
      },
      "uri(uint256)": {
        "details": "See {IERC1155MetadataURI-uri}. This implementation returns the same URI for *all* token types. It relies on the token type ID substitution mechanism https://eips.ethereum.org/EIPS/eip-1155#metadata[defined in the EIP]. Clients calling this function must replace the `\\{id\\}` substring with the actual token type ID."
      }
    },
    "version": 1
  },
  "userdoc": {
    "kind": "user",
    "methods": {},
    "version": 1
  }
}