{
  "contractName": "RealSkulls",
  "abi": [
    {
      "inputs": [],
      "stateMutability": "nonpayable",
      "type": "constructor"
    },
    {
      "anonymous": false,
      "inputs": [
        {
          "indexed": true,
          "internalType": "address",
          "name": "account",
          "type": "address"
        },
        {
          "indexed": true,
          "internalType": "address",
          "name": "operator",
          "type": "address"
        },
        {
          "indexed": false,
          "internalType": "bool",
          "name": "approved",
          "type": "bool"
        }
      ],
      "name": "ApprovalForAll",
      "type": "event"
    },
    {
      "anonymous": false,
      "inputs": [
        {
          "indexed": true,
          "internalType": "address",
          "name": "previousOwner",
          "type": "address"
        },
        {
          "indexed": true,
          "internalType": "address",
          "name": "newOwner",
          "type": "address"
        }
      ],
      "name": "OwnershipTransferred",
      "type": "event"
    },
    {
      "anonymous": false,
      "inputs": [
        {
          "indexed": true,
          "internalType": "address",
          "name": "operator",
          "type": "address"
        },
        {
          "indexed": true,
          "internalType": "address",
          "name": "from",
          "type": "address"
        },
        {
          "indexed": true,
          "internalType": "address",
          "name": "to",
          "type": "address"
        },
        {
          "indexed": false,
          "internalType": "uint256[]",
          "name": "ids",
          "type": "uint256[]"
        },
        {
          "indexed": false,
          "internalType": "uint256[]",
          "name": "values",
          "type": "uint256[]"
        }
      ],
      "name": "TransferBatch",
      "type": "event"
    },
    {
      "anonymous": false,
      "inputs": [
        {
          "indexed": true,
          "internalType": "address",
          "name": "operator",
          "type": "address"
        },
        {
          "indexed": true,
          "internalType": "address",
          "name": "from",
          "type": "address"
        },
        {
          "indexed": true,
          "internalType": "address",
          "name": "to",
          "type": "address"
        },
        {
          "indexed": false,
          "internalType": "uint256",
          "name": "id",
          "type": "uint256"
        },
        {
          "indexed": false,
          "internalType": "uint256",
          "name": "value",
          "type": "uint256"
        }
      ],
      "name": "TransferSingle",
      "type": "event"
    },
    {
      "anonymous": false,
      "inputs": [
        {
          "indexed": false,
          "internalType": "string",
          "name": "value",
          "type": "string"
        },
        {
          "indexed": true,
          "internalType": "uint256",
          "name": "id",
          "type": "uint256"
        }
      ],
      "name": "URI",
      "type": "event"
    },
    {
      "inputs": [
        {
          "internalType": "address",
          "name": "account",
          "type": "address"
        },
        {
          "internalType": "uint256",
          "name": "id",
          "type": "uint256"
        }
      ],
      "name": "balanceOf",
      "outputs": [
        {
          "internalType": "uint256",
          "name": "",
          "type": "uint256"
        }
      ],
      "stateMutability": "view",
      "type": "function"
    },
    {
      "inputs": [
        {
          "internalType": "address[]",
          "name": "accounts",
          "type": "address[]"
        },
        {
          "internalType": "uint256[]",
          "name": "ids",
          "type": "uint256[]"
        }
      ],
      "name": "balanceOfBatch",
      "outputs": [
        {
          "internalType": "uint256[]",
          "name": "",
          "type": "uint256[]"
        }
      ],
      "stateMutability": "view",
      "type": "function"
    },
    {
      "inputs": [
        {
          "internalType": "address",
          "name": "account",
          "type": "address"
        },
        {
          "internalType": "address",
          "name": "operator",
          "type": "address"
        }
      ],
      "name": "isApprovedForAll",
      "outputs": [
        {
          "internalType": "bool",
          "name": "",
          "type": "bool"
        }
      ],
      "stateMutability": "view",
      "type": "function"
    },
    {
      "inputs": [],
      "name": "owner",
      "outputs": [
        {
          "internalType": "address",
          "name": "",
          "type": "address"
        }
      ],
      "stateMutability": "view",
      "type": "function"
    },
    {
      "inputs": [],
      "name": "renounceOwnership",
      "outputs": [],
      "stateMutability": "nonpayable",
      "type": "function"
    },
    {
      "inputs": [
        {
          "internalType": "address",
          "name": "from",
          "type": "address"
        },
        {
          "internalType": "address",
          "name": "to",
          "type": "address"
        },
        {
          "internalType": "uint256[]",
          "name": "ids",
          "type": "uint256[]"
        },
        {
          "internalType": "uint256[]",
          "name": "amounts",
          "type": "uint256[]"
        },
        {
          "internalType": "bytes",
          "name": "data",
          "type": "bytes"
        }
      ],
      "name": "safeBatchTransferFrom",
      "outputs": [],
      "stateMutability": "nonpayable",
      "type": "function"
    },
    {
      "inputs": [
        {
          "internalType": "address",
          "name": "from",
          "type": "address"
        },
        {
          "internalType": "address",
          "name": "to",
          "type": "address"
        },
        {
          "internalType": "uint256",
          "name": "id",
          "type": "uint256"
        },
        {
          "internalType": "uint256",
          "name": "amount",
          "type": "uint256"
        },
        {
          "internalType": "bytes",
          "name": "data",
          "type": "bytes"
        }
      ],
      "name": "safeTransferFrom",
      "outputs": [],
      "stateMutability": "nonpayable",
      "type": "function"
    },
    {
      "inputs": [
        {
          "internalType": "address",
          "name": "operator",
          "type": "address"
        },
        {
          "internalType": "bool",
          "name": "approved",
          "type": "bool"
        }
      ],
      "name": "setApprovalForAll",
      "outputs": [],
      "stateMutability": "nonpayable",
      "type": "function"
    },
    {
      "inputs": [
        {
          "internalType": "bytes4",
          "name": "interfaceId",
          "type": "bytes4"
        }
      ],
      "name": "supportsInterface",
      "outputs": [
        {
          "internalType": "bool",
          "name": "",
          "type": "bool"
        }
      ],
      "stateMutability": "view",
      "type": "function"
    },
    {
      "inputs": [
        {
          "internalType": "address",
          "name": "newOwner",
          "type": "address"
        }
      ],
      "name": "transferOwnership",
      "outputs": [],
      "stateMutability": "nonpayable",
      "type": "function"
    },
    {
      "inputs": [
        {
          "internalType": "uint256",
          "name": "",
          "type": "uint256"
        }
      ],
      "name": "uri",
      "outputs": [
        {
          "internalType": "string",
          "name": "",
          "type": "string"
        }
      ],
      "stateMutability": "view",
      "type": "function"
    },
    {
      "inputs": [
        {
          "internalType": "address",
          "name": "to",
          "type": "address"
        },
        {
          "internalType": "uint256[]",
          "name": "ids",
          "type": "uint256[]"
        },
        {
          "internalType": "uint256[]",
          "name": "amounts",
          "type": "uint256[]"
        }
      ],
      "name": "mint",
      "outputs": [],
      "stateMutability": "nonpayable",
      "type": "function"
    },
    {
      "inputs": [
        {
          "internalType": "uint256",
          "name": "tokenId",
          "type": "uint256"
        }
      ],
      "name": "getSupply",
      "outputs": [
        {
          "internalType": "uint256",
          "name": "",
          "type": "uint256"
        }
      ],
      "stateMutability": "view",
      "type": "function"
    }
  ],
  "bytecode": "0x60806040523480156200001157600080fd5b5060405180606001604052806027815260200162003110602791396200003d816200006460201b60201c565b506200005e620000526200008060201b60201c565b6200008860201b60201c565b62000263565b80600290805190602001906200007c9291906200014e565b5050565b600033905090565b6000600360009054906101000a900473ffffffffffffffffffffffffffffffffffffffff16905081600360006101000a81548173ffffffffffffffffffffffffffffffffffffffff021916908373ffffffffffffffffffffffffffffffffffffffff1602179055508173ffffffffffffffffffffffffffffffffffffffff168173ffffffffffffffffffffffffffffffffffffffff167f8be0079c531659141344cd1fd0a4f28419497f9722a3daafe3b4186f6b6457e060405160405180910390a35050565b8280546200015c906200022d565b90600052602060002090601f016020900481019282620001805760008555620001cc565b82601f106200019b57805160ff1916838001178555620001cc565b82800160010185558215620001cc579182015b82811115620001cb578251825591602001919060010190620001ae565b5b509050620001db9190620001df565b5090565b5b80821115620001fa576000816000905550600101620001e0565b5090565b7f4e487b7100000000000000000000000000000000000000000000000000000000600052602260045260246000fd5b600060028204905060018216806200024657607f821691505b602082108114156200025d576200025c620001fe565b5b50919050565b612e9d80620002736000396000f3fe608060405234801561001057600080fd5b50600436106100ce5760003560e01c80638da5cb5b1161008c578063e985e9c511610066578063e985e9c51461020f578063f242432a1461023f578063f2fde38b1461025b578063f77ee79d14610277576100ce565b80638da5cb5b146101b95780639727756a146101d7578063a22cb465146101f3576100ce565b8062fdd58e146100d357806301ffc9a7146101035780630e89341c146101335780632eb2c2d6146101635780634e1273f41461017f578063715018a6146101af575b600080fd5b6100ed60048036038101906100e89190611a2e565b6102a7565b6040516100fa9190611a7d565b60405180910390f35b61011d60048036038101906101189190611af0565b610370565b60405161012a9190611b38565b60405180910390f35b61014d60048036038101906101489190611b53565b610452565b60405161015a9190611c19565b60405180910390f35b61017d60048036038101906101789190611e38565b6104e6565b005b61019960048036038101906101949190611fca565b610587565b6040516101a69190612100565b60405180910390f35b6101b76106a0565b005b6101c1610728565b6040516101ce9190612131565b60405180910390f35b6101f160048036038101906101ec919061214c565b610752565b005b61020d60048036038101906102089190612203565b61086c565b005b61022960048036038101906102249190612243565b6109ed565b6040516102369190611b38565b60405180910390f35b61025960048036038101906102549190612283565b610a81565b005b6102756004803603810190610270919061231a565b610b22565b005b610291600480360381019061028c9190611b53565b610c1a565b60405161029e9190611a7d565b60405180910390f35b60008073ffffffffffffffffffffffffffffffffffffffff168373ffffffffffffffffffffffffffffffffffffffff161415610318576040517f08c379a000000000000000000000000000000000000000000000000000000000815260040161030f906123b9565b60405180910390fd5b60008083815260200190815260200160002060008473ffffffffffffffffffffffffffffffffffffffff1673ffffffffffffffffffffffffffffffffffffffff16815260200190815260200160002054905092915050565b60007fd9b67a26000000000000000000000000000000000000000000000000000000007bffffffffffffffffffffffffffffffffffffffffffffffffffffffff1916827bffffffffffffffffffffffffffffffffffffffffffffffffffffffff1916148061043b57507f0e89341c000000000000000000000000000000000000000000000000000000007bffffffffffffffffffffffffffffffffffffffffffffffffffffffff1916827bffffffffffffffffffffffffffffffffffffffffffffffffffffffff1916145b8061044b575061044a82610c37565b5b9050919050565b60606002805461046190612408565b80601f016020809104026020016040519081016040528092919081815260200182805461048d90612408565b80156104da5780601f106104af576101008083540402835291602001916104da565b820191906000526020600020905b8154815290600101906020018083116104bd57829003601f168201915b50505050509050919050565b6104ee610ca1565b73ffffffffffffffffffffffffffffffffffffffff168573ffffffffffffffffffffffffffffffffffffffff16148061053457506105338561052e610ca1565b6109ed565b5b610573576040517f08c379a000000000000000000000000000000000000000000000000000000000815260040161056a906124ac565b60405180910390fd5b6105808585858585610ca9565b5050505050565b606081518351146105cd576040517f08c379a00000000000000000000000000000000000000000000000000000000081526004016105c49061253e565b60405180910390fd5b6000835167ffffffffffffffff8111156105ea576105e9611c40565b5b6040519080825280602002602001820160405280156106185781602001602082028036833780820191505090505b50905060005b84518110156106955761066585828151811061063d5761063c61255e565b5b60200260200101518583815181106106585761065761255e565b5b60200260200101516102a7565b8282815181106106785761067761255e565b5b6020026020010181815250508061068e906125bc565b905061061e565b508091505092915050565b6106a8610ca1565b73ffffffffffffffffffffffffffffffffffffffff166106c6610728565b73ffffffffffffffffffffffffffffffffffffffff161461071c576040517f08c379a000000000000000000000000000000000000000000000000000000000815260040161071390612651565b60405180910390fd5b6107266000610fbd565b565b6000600360009054906101000a900473ffffffffffffffffffffffffffffffffffffffff16905090565b61075a610ca1565b73ffffffffffffffffffffffffffffffffffffffff16610778610728565b73ffffffffffffffffffffffffffffffffffffffff16146107ce576040517f08c379a00000000000000000000000000000000000000000000000000000000081526004016107c590612651565b60405180910390fd5b6107e983838360405180602001604052806000815250611083565b60005b8251811015610866578181815181106108085761080761255e565b5b6020026020010151600460008584815181106108275761082661255e565b5b60200260200101518152602001908152602001600020600082825461084c9190612671565b92505081905550808061085e906125bc565b9150506107ec565b50505050565b8173ffffffffffffffffffffffffffffffffffffffff1661088b610ca1565b73ffffffffffffffffffffffffffffffffffffffff1614156108e2576040517f08c379a00000000000000000000000000000000000000000000000000000000081526004016108d990612739565b60405180910390fd5b80600160006108ef610ca1565b73ffffffffffffffffffffffffffffffffffffffff1673ffffffffffffffffffffffffffffffffffffffff16815260200190815260200160002060008473ffffffffffffffffffffffffffffffffffffffff1673ffffffffffffffffffffffffffffffffffffffff16815260200190815260200160002060006101000a81548160ff0219169083151502179055508173ffffffffffffffffffffffffffffffffffffffff1661099c610ca1565b73ffffffffffffffffffffffffffffffffffffffff167f17307eab39ab6107e8899845ad3d59bd9653f200f220920489ca2b5937696c31836040516109e19190611b38565b60405180910390a35050565b6000600160008473ffffffffffffffffffffffffffffffffffffffff1673ffffffffffffffffffffffffffffffffffffffff16815260200190815260200160002060008373ffffffffffffffffffffffffffffffffffffffff1673ffffffffffffffffffffffffffffffffffffffff16815260200190815260200160002060009054906101000a900460ff16905092915050565b610a89610ca1565b73ffffffffffffffffffffffffffffffffffffffff168573ffffffffffffffffffffffffffffffffffffffff161480610acf5750610ace85610ac9610ca1565b6109ed565b5b610b0e576040517f08c379a0000000000000000000000000000000000000000000000000000000008152600401610b05906127cb565b60405180910390fd5b610b1b85858585856112a1565b5050505050565b610b2a610ca1565b73ffffffffffffffffffffffffffffffffffffffff16610b48610728565b73ffffffffffffffffffffffffffffffffffffffff1614610b9e576040517f08c379a0000000000000000000000000000000000000000000000000000000008152600401610b9590612651565b60405180910390fd5b600073ffffffffffffffffffffffffffffffffffffffff168173ffffffffffffffffffffffffffffffffffffffff161415610c0e576040517f08c379a0000000000000000000000000000000000000000000000000000000008152600401610c059061285d565b60405180910390fd5b610c1781610fbd565b50565b600060046000838152602001908152602001600020549050919050565b60007f01ffc9a7000000000000000000000000000000000000000000000000000000007bffffffffffffffffffffffffffffffffffffffffffffffffffffffff1916827bffffffffffffffffffffffffffffffffffffffffffffffffffffffff1916149050919050565b600033905090565b8151835114610ced576040517f08c379a0000000000000000000000000000000000000000000000000000000008152600401610ce4906128ef565b60405180910390fd5b600073ffffffffffffffffffffffffffffffffffffffff168473ffffffffffffffffffffffffffffffffffffffff161415610d5d576040517f08c379a0000000000000000000000000000000000000000000000000000000008152600401610d5490612981565b60405180910390fd5b6000610d67610ca1565b9050610d77818787878787611523565b60005b8451811015610f28576000858281518110610d9857610d9761255e565b5b602002602001015190506000858381518110610db757610db661255e565b5b60200260200101519050600080600084815260200190815260200160002060008b73ffffffffffffffffffffffffffffffffffffffff1673ffffffffffffffffffffffffffffffffffffffff16815260200190815260200160002054905081811015610e58576040517f08c379a0000000000000000000000000000000000000000000000000000000008152600401610e4f90612a13565b60405180910390fd5b81810360008085815260200190815260200160002060008c73ffffffffffffffffffffffffffffffffffffffff1673ffffffffffffffffffffffffffffffffffffffff168152602001908152602001600020819055508160008085815260200190815260200160002060008b73ffffffffffffffffffffffffffffffffffffffff1673ffffffffffffffffffffffffffffffffffffffff1681526020019081526020016000206000828254610f0d9190612671565b9250508190555050505080610f21906125bc565b9050610d7a565b508473ffffffffffffffffffffffffffffffffffffffff168673ffffffffffffffffffffffffffffffffffffffff168273ffffffffffffffffffffffffffffffffffffffff167f4a39dc06d4c0dbc64b70af90fd698a233a518aa5d07e595d983b8c0526c8f7fb8787604051610f9f929190612a33565b60405180910390a4610fb581878787878761152b565b505050505050565b6000600360009054906101000a900473ffffffffffffffffffffffffffffffffffffffff16905081600360006101000a81548173ffffffffffffffffffffffffffffffffffffffff021916908373ffffffffffffffffffffffffffffffffffffffff1602179055508173ffffffffffffffffffffffffffffffffffffffff168173ffffffffffffffffffffffffffffffffffffffff167f8be0079c531659141344cd1fd0a4f28419497f9722a3daafe3b4186f6b6457e060405160405180910390a35050565b600073ffffffffffffffffffffffffffffffffffffffff168473ffffffffffffffffffffffffffffffffffffffff1614156110f3576040517f08c379a00000000000000000000000000000000000000000000000000000000081526004016110ea90612adc565b60405180910390fd5b8151835114611137576040517f08c379a000000000000000000000000000000000000000000000000000000000815260040161112e906128ef565b60405180910390fd5b6000611141610ca1565b905061115281600087878787611523565b60005b845181101561120b578381815181106111715761117061255e565b5b602002602001015160008087848151811061118f5761118e61255e565b5b6020026020010151815260200190815260200160002060008873ffffffffffffffffffffffffffffffffffffffff1673ffffffffffffffffffffffffffffffffffffffff16815260200190815260200160002060008282546111f19190612671565b925050819055508080611203906125bc565b915050611155565b508473ffffffffffffffffffffffffffffffffffffffff16600073ffffffffffffffffffffffffffffffffffffffff168273ffffffffffffffffffffffffffffffffffffffff167f4a39dc06d4c0dbc64b70af90fd698a233a518aa5d07e595d983b8c0526c8f7fb8787604051611283929190612a33565b60405180910390a461129a8160008787878761152b565b5050505050565b600073ffffffffffffffffffffffffffffffffffffffff168473ffffffffffffffffffffffffffffffffffffffff161415611311576040517f08c379a000000000000000000000000000000000000000000000000000000000815260040161130890612981565b60405180910390fd5b600061131b610ca1565b905061133b81878761132c88611712565b61133588611712565b87611523565b600080600086815260200190815260200160002060008873ffffffffffffffffffffffffffffffffffffffff1673ffffffffffffffffffffffffffffffffffffffff168152602001908152602001600020549050838110156113d2576040517f08c379a00000000000000000000000000000000000000000000000000000000081526004016113c990612a13565b60405180910390fd5b83810360008087815260200190815260200160002060008973ffffffffffffffffffffffffffffffffffffffff1673ffffffffffffffffffffffffffffffffffffffff168152602001908152602001600020819055508360008087815260200190815260200160002060008873ffffffffffffffffffffffffffffffffffffffff1673ffffffffffffffffffffffffffffffffffffffff16815260200190815260200160002060008282546114879190612671565b925050819055508573ffffffffffffffffffffffffffffffffffffffff168773ffffffffffffffffffffffffffffffffffffffff168373ffffffffffffffffffffffffffffffffffffffff167fc3d58168c5ae7397731d063d5bbf3d657854427343f4c083240f7aacaa2d0f628888604051611504929190612afc565b60405180910390a461151a82888888888861178c565b50505050505050565b505050505050565b61154a8473ffffffffffffffffffffffffffffffffffffffff16611973565b1561170a578373ffffffffffffffffffffffffffffffffffffffff1663bc197c8187878686866040518663ffffffff1660e01b8152600401611590959493929190612b7a565b602060405180830381600087803b1580156115aa57600080fd5b505af19250505080156115db57506040513d601f19601f820116820180604052508101906115d89190612bf7565b60015b611681576115e7612c31565b806308c379a0141561164457506115fc612c53565b806116075750611646565b806040517f08c379a000000000000000000000000000000000000000000000000000000000815260040161163b9190611c19565b60405180910390fd5b505b6040517f08c379a000000000000000000000000000000000000000000000000000000000815260040161167890612d5b565b60405180910390fd5b63bc197c8160e01b7bffffffffffffffffffffffffffffffffffffffffffffffffffffffff1916817bffffffffffffffffffffffffffffffffffffffffffffffffffffffff191614611708576040517f08c379a00000000000000000000000000000000000000000000000000000000081526004016116ff90612ded565b60405180910390fd5b505b505050505050565b60606000600167ffffffffffffffff81111561173157611730611c40565b5b60405190808252806020026020018201604052801561175f5781602001602082028036833780820191505090505b50905082816000815181106117775761177661255e565b5b60200260200101818152505080915050919050565b6117ab8473ffffffffffffffffffffffffffffffffffffffff16611973565b1561196b578373ffffffffffffffffffffffffffffffffffffffff1663f23a6e6187878686866040518663ffffffff1660e01b81526004016117f1959493929190612e0d565b602060405180830381600087803b15801561180b57600080fd5b505af192505050801561183c57506040513d601f19601f820116820180604052508101906118399190612bf7565b60015b6118e257611848612c31565b806308c379a014156118a5575061185d612c53565b8061186857506118a7565b806040517f08c379a000000000000000000000000000000000000000000000000000000000815260040161189c9190611c19565b60405180910390fd5b505b6040517f08c379a00000000000000000000000000000000000000000000000000000000081526004016118d990612d5b565b60405180910390fd5b63f23a6e6160e01b7bffffffffffffffffffffffffffffffffffffffffffffffffffffffff1916817bffffffffffffffffffffffffffffffffffffffffffffffffffffffff191614611969576040517f08c379a000000000000000000000000000000000000000000000000000000000815260040161196090612ded565b60405180910390fd5b505b505050505050565b600080823b905060008111915050919050565b6000604051905090565b600080fd5b600080fd5b600073ffffffffffffffffffffffffffffffffffffffff82169050919050565b60006119c58261199a565b9050919050565b6119d5816119ba565b81146119e057600080fd5b50565b6000813590506119f2816119cc565b92915050565b6000819050919050565b611a0b816119f8565b8114611a1657600080fd5b50565b600081359050611a2881611a02565b92915050565b60008060408385031215611a4557611a44611990565b5b6000611a53858286016119e3565b9250506020611a6485828601611a19565b9150509250929050565b611a77816119f8565b82525050565b6000602082019050611a926000830184611a6e565b92915050565b60007fffffffff0000000000000000000000000000000000000000000000000000000082169050919050565b611acd81611a98565b8114611ad857600080fd5b50565b600081359050611aea81611ac4565b92915050565b600060208284031215611b0657611b05611990565b5b6000611b1484828501611adb565b91505092915050565b60008115159050919050565b611b3281611b1d565b82525050565b6000602082019050611b4d6000830184611b29565b92915050565b600060208284031215611b6957611b68611990565b5b6000611b7784828501611a19565b91505092915050565b600081519050919050565b600082825260208201905092915050565b60005b83811015611bba578082015181840152602081019050611b9f565b83811115611bc9576000848401525b50505050565b6000601f19601f8301169050919050565b6000611beb82611b80565b611bf58185611b8b565b9350611c05818560208601611b9c565b611c0e81611bcf565b840191505092915050565b60006020820190508181036000830152611c338184611be0565b905092915050565b600080fd5b7f4e487b7100000000000000000000000000000000000000000000000000000000600052604160045260246000fd5b611c7882611bcf565b810181811067ffffffffffffffff82111715611c9757611c96611c40565b5b80604052505050565b6000611caa611986565b9050611cb68282611c6f565b919050565b600067ffffffffffffffff821115611cd657611cd5611c40565b5b602082029050602081019050919050565b600080fd5b6000611cff611cfa84611cbb565b611ca0565b90508083825260208201905060208402830185811115611d2257611d21611ce7565b5b835b81811015611d4b5780611d378882611a19565b845260208401935050602081019050611d24565b5050509392505050565b600082601f830112611d6a57611d69611c3b565b5b8135611d7a848260208601611cec565b91505092915050565b600080fd5b600067ffffffffffffffff821115611da357611da2611c40565b5b611dac82611bcf565b9050602081019050919050565b82818337600083830152505050565b6000611ddb611dd684611d88565b611ca0565b905082815260208101848484011115611df757611df6611d83565b5b611e02848285611db9565b509392505050565b600082601f830112611e1f57611e1e611c3b565b5b8135611e2f848260208601611dc8565b91505092915050565b600080600080600060a08688031215611e5457611e53611990565b5b6000611e62888289016119e3565b9550506020611e73888289016119e3565b945050604086013567ffffffffffffffff811115611e9457611e93611995565b5b611ea088828901611d55565b935050606086013567ffffffffffffffff811115611ec157611ec0611995565b5b611ecd88828901611d55565b925050608086013567ffffffffffffffff811115611eee57611eed611995565b5b611efa88828901611e0a565b9150509295509295909350565b600067ffffffffffffffff821115611f2257611f21611c40565b5b602082029050602081019050919050565b6000611f46611f4184611f07565b611ca0565b90508083825260208201905060208402830185811115611f6957611f68611ce7565b5b835b81811015611f925780611f7e88826119e3565b845260208401935050602081019050611f6b565b5050509392505050565b600082601f830112611fb157611fb0611c3b565b5b8135611fc1848260208601611f33565b91505092915050565b60008060408385031215611fe157611fe0611990565b5b600083013567ffffffffffffffff811115611fff57611ffe611995565b5b61200b85828601611f9c565b925050602083013567ffffffffffffffff81111561202c5761202b611995565b5b61203885828601611d55565b9150509250929050565b600081519050919050565b600082825260208201905092915050565b6000819050602082019050919050565b612077816119f8565b82525050565b6000612089838361206e565b60208301905092915050565b6000602082019050919050565b60006120ad82612042565b6120b7818561204d565b93506120c28361205e565b8060005b838110156120f35781516120da888261207d565b97506120e583612095565b9250506001810190506120c6565b5085935050505092915050565b6000602082019050818103600083015261211a81846120a2565b905092915050565b61212b816119ba565b82525050565b60006020820190506121466000830184612122565b92915050565b60008060006060848603121561216557612164611990565b5b6000612173868287016119e3565b935050602084013567ffffffffffffffff81111561219457612193611995565b5b6121a086828701611d55565b925050604084013567ffffffffffffffff8111156121c1576121c0611995565b5b6121cd86828701611d55565b9150509250925092565b6121e081611b1d565b81146121eb57600080fd5b50565b6000813590506121fd816121d7565b92915050565b6000806040838503121561221a57612219611990565b5b6000612228858286016119e3565b9250506020612239858286016121ee565b9150509250929050565b6000806040838503121561225a57612259611990565b5b6000612268858286016119e3565b9250506020612279858286016119e3565b9150509250929050565b600080600080600060a0868803121561229f5761229e611990565b5b60006122ad888289016119e3565b95505060206122be888289016119e3565b94505060406122cf88828901611a19565b93505060606122e088828901611a19565b925050608086013567ffffffffffffffff81111561230157612300611995565b5b61230d88828901611e0a565b9150509295509295909350565b6000602082840312156123305761232f611990565b5b600061233e848285016119e3565b91505092915050565b7f455243313135353a2062616c616e636520717565727920666f7220746865207a60008201527f65726f2061646472657373000000000000000000000000000000000000000000602082015250565b60006123a3602b83611b8b565b91506123ae82612347565b604082019050919050565b600060208201905081810360008301526123d281612396565b9050919050565b7f4e487b7100000000000000000000000000000000000000000000000000000000600052602260045260246000fd5b6000600282049050600182168061242057607f821691505b60208210811415612434576124336123d9565b5b50919050565b7f455243313135353a207472616e736665722063616c6c6572206973206e6f742060008201527f6f776e6572206e6f7220617070726f7665640000000000000000000000000000602082015250565b6000612496603283611b8b565b91506124a18261243a565b604082019050919050565b600060208201905081810360008301526124c581612489565b9050919050565b7f455243313135353a206163636f756e747320616e6420696473206c656e67746860008201527f206d69736d617463680000000000000000000000000000000000000000000000602082015250565b6000612528602983611b8b565b9150612533826124cc565b604082019050919050565b600060208201905081810360008301526125578161251b565b9050919050565b7f4e487b7100000000000000000000000000000000000000000000000000000000600052603260045260246000fd5b7f4e487b7100000000000000000000000000000000000000000000000000000000600052601160045260246000fd5b60006125c7826119f8565b91507fffffffffffffffffffffffffffffffffffffffffffffffffffffffffffffffff8214156125fa576125f961258d565b5b600182019050919050565b7f4f776e61626c653a2063616c6c6572206973206e6f7420746865206f776e6572600082015250565b600061263b602083611b8b565b915061264682612605565b602082019050919050565b6000602082019050818103600083015261266a8161262e565b9050919050565b600061267c826119f8565b9150612687836119f8565b9250827fffffffffffffffffffffffffffffffffffffffffffffffffffffffffffffffff038211156126bc576126bb61258d565b5b828201905092915050565b7f455243313135353a2073657474696e6720617070726f76616c2073746174757360008201527f20666f722073656c660000000000000000000000000000000000000000000000602082015250565b6000612723602983611b8b565b915061272e826126c7565b604082019050919050565b6000602082019050818103600083015261275281612716565b9050919050565b7f455243313135353a2063616c6c6572206973206e6f74206f776e6572206e6f7260008201527f20617070726f7665640000000000000000000000000000000000000000000000602082015250565b60006127b5602983611b8b565b91506127c082612759565b604082019050919050565b600060208201905081810360008301526127e4816127a8565b9050919050565b7f4f776e61626c653a206e6577206f776e657220697320746865207a65726f206160008201527f6464726573730000000000000000000000000000000000000000000000000000602082015250565b6000612847602683611b8b565b9150612852826127eb565b604082019050919050565b600060208201905081810360008301526128768161283a565b9050919050565b7f455243313135353a2069647320616e6420616d6f756e7473206c656e6774682060008201527f6d69736d61746368000000000000000000000000000000000000000000000000602082015250565b60006128d9602883611b8b565b91506128e48261287d565b604082019050919050565b60006020820190508181036000830152612908816128cc565b9050919050565b7f455243313135353a207472616e7366657220746f20746865207a65726f20616460008201527f6472657373000000000000000000000000000000000000000000000000000000602082015250565b600061296b602583611b8b565b91506129768261290f565b604082019050919050565b6000602082019050818103600083015261299a8161295e565b9050919050565b7f455243313135353a20696e73756666696369656e742062616c616e636520666f60008201527f72207472616e7366657200000000000000000000000000000000000000000000602082015250565b60006129fd602a83611b8b565b9150612a08826129a1565b604082019050919050565b60006020820190508181036000830152612a2c816129f0565b9050919050565b60006040820190508181036000830152612a4d81856120a2565b90508181036020830152612a6181846120a2565b90509392505050565b7f455243313135353a206d696e7420746f20746865207a65726f2061646472657360008201527f7300000000000000000000000000000000000000000000000000000000000000602082015250565b6000612ac6602183611b8b565b9150612ad182612a6a565b604082019050919050565b60006020820190508181036000830152612af581612ab9565b9050919050565b6000604082019050612b116000830185611a6e565b612b1e6020830184611a6e565b9392505050565b600081519050919050565b600082825260208201905092915050565b6000612b4c82612b25565b612b568185612b30565b9350612b66818560208601611b9c565b612b6f81611bcf565b840191505092915050565b600060a082019050612b8f6000830188612122565b612b9c6020830187612122565b8181036040830152612bae81866120a2565b90508181036060830152612bc281856120a2565b90508181036080830152612bd68184612b41565b90509695505050505050565b600081519050612bf181611ac4565b92915050565b600060208284031215612c0d57612c0c611990565b5b6000612c1b84828501612be2565b91505092915050565b60008160e01c9050919050565b600060033d1115612c505760046000803e612c4d600051612c24565b90505b90565b600060443d1015612c6357612ce6565b612c6b611986565b60043d036004823e80513d602482011167ffffffffffffffff82111715612c93575050612ce6565b808201805167ffffffffffffffff811115612cb15750505050612ce6565b80602083010160043d038501811115612cce575050505050612ce6565b612cdd82602001850186611c6f565b82955050505050505b90565b7f455243313135353a207472616e7366657220746f206e6f6e204552433131353560008201527f526563656976657220696d706c656d656e746572000000000000000000000000602082015250565b6000612d45603483611b8b565b9150612d5082612ce9565b604082019050919050565b60006020820190508181036000830152612d7481612d38565b9050919050565b7f455243313135353a204552433131353552656365697665722072656a6563746560008201527f6420746f6b656e73000000000000000000000000000000000000000000000000602082015250565b6000612dd7602883611b8b565b9150612de282612d7b565b604082019050919050565b60006020820190508181036000830152612e0681612dca565b9050919050565b600060a082019050612e226000830188612122565b612e2f6020830187612122565b612e3c6040830186611a6e565b612e496060830185611a6e565b8181036080830152612e5b8184612b41565b9050969550505050505056fea2646970667358221220a02e4ccbfa8a7ac8acecbc6a7027e2e4134cb380d83732625c4cf14a45f0681a64736f6c6343000809003368747470733a2f2f67616d652e6578616d706c652f6170692f6974656d2f7b69647d2e6a736f6e",
  "immutableReferences": {},
  "source": "// SPDX-License-Identifier: MIT\npragma solidity ^0.8.9;\n\nimport \"@openzeppelin/contracts/token/ERC1155/ERC1155.sol\";\nimport \"@openzeppelin/contracts/access/Ownable.sol\";\n\ncontract RealSkulls is ERC1155, Ownable {\n  mapping(uint256 => uint256) private _tokenSupply;\n\n  constructor() ERC1155(\"https://game.example/api/item/{id}.json\") {}\n\n  function mint(\n    address to,\n    uint256[] memory ids,\n    uint256[] memory amounts\n  ) public onlyOwner {\n    _mintBatch(to, ids, amounts, \"\");\n    for (uint256 i = 0; i < ids.length; i++) _tokenSupply[ids[i]] += amounts[i];\n  }\n\n  function getSupply(uint256 tokenId) public view returns (uint256) {\n    return _tokenSupply[tokenId];\n  }\n}\n",
  "sourcePath": "/home/rafael/Desktop/repos/NFT/RealSkulls/contracts/RealSkulls.sol",
  "compiler": {
    "name": "solc",
    "version": "0.8.9+commit.e5eed63a.Emscripten.clang"
  },
  "schemaVersion": "3.4.3",
  "updatedAt": "2021-10-13T03:22:30.339Z",
  "devdoc": {
    "kind": "dev",
    "methods": {
      "balanceOf(address,uint256)": {
        "details": "See {IERC1155-balanceOf}. Requirements: - `account` cannot be the zero address."
      },
      "balanceOfBatch(address[],uint256[])": {
        "details": "See {IERC1155-balanceOfBatch}. Requirements: - `accounts` and `ids` must have the same length."
      },
      "isApprovedForAll(address,address)": {
        "details": "See {IERC1155-isApprovedForAll}."
      },
      "owner()": {
        "details": "Returns the address of the current owner."
      },
      "renounceOwnership()": {
        "details": "Leaves the contract without owner. It will not be possible to call `onlyOwner` functions anymore. Can only be called by the current owner. NOTE: Renouncing ownership will leave the contract without an owner, thereby removing any functionality that is only available to the owner."
      },
      "safeBatchTransferFrom(address,address,uint256[],uint256[],bytes)": {
        "details": "See {IERC1155-safeBatchTransferFrom}."
      },
      "safeTransferFrom(address,address,uint256,uint256,bytes)": {
        "details": "See {IERC1155-safeTransferFrom}."
      },
      "setApprovalForAll(address,bool)": {
        "details": "See {IERC1155-setApprovalForAll}."
      },
      "supportsInterface(bytes4)": {
        "details": "See {IERC165-supportsInterface}."
      },
      "transferOwnership(address)": {
        "details": "Transfers ownership of the contract to a new account (`newOwner`). Can only be called by the current owner."
      },
      "uri(uint256)": {
        "details": "See {IERC1155MetadataURI-uri}. This implementation returns the same URI for *all* token types. It relies on the token type ID substitution mechanism https://eips.ethereum.org/EIPS/eip-1155#metadata[defined in the EIP]. Clients calling this function must replace the `\\{id\\}` substring with the actual token type ID."
      }
    },
    "version": 1
  },
  "userdoc": {
    "kind": "user",
    "methods": {},
    "version": 1
  }
}